:0400000007EF00F016
:0A0008005F82B5ED0DF0E6EF22F087
:1008000000E5084C08B90809080902430002010084
:10081000C032090400000102020100052400100199
:100820000424020205240600010524010001070535
:10083000810308000209040100020A000000070504
:1008400002024000000705820240000034034D0010
:100850006900630072006F00630068006900700047
:10086000200054006500630068006E006F006C009B
:100870006F0067007900200049006E0063002E00C1
:1008800000803F72313FFE753E58633D951D3CC56B
:10089000AE3A79213994803793A735561534000044
:1008A0000000803FF0FFBEE2A93E8376BEAE2B3E45
:1008B0003CC3BDD2133D78D3BB1A034D0079004130
:1008C000004D0050002D0043006F006E006600696F
:1008D0000067001201000202000008D8040A0000AC
:1008E00001010200010403090400C8EC2AF06CECC9
:1008F00022F0EEEC0FF0000E0001DC6FADC1DBF07A
:1009000038EC0FF01F0E0001FC6520D0F551D8A483
:100910001DD0FD0E6B6F000E6C6F010E6D6F40EC05
:1009200020F00009D8B412D06FEC2AF0840E000138
:10093000606F050E616FFD0E79EC08F00001FD514E
:10094000020DF350B5EC1CF04DEC2AF0010E010144
:10095000C56FC551D8A4FDD7ADC1DDF00001DB5195
:10096000DD19D8A43ED046D068EC2AF00001F4513D
:10097000D8B414D021EEADF000EEB1F00B0EDBCF09
:10098000EBFFE806FCE2BBEC1EF0000E0101346F49
:10099000000E0001F46F0201D16946D0010E000182
:1009A000DC6F000E9F6F000EA06F400EA16F000E57
:1009B000A26F9EEC25F038D0000E0001DC6FF451E0
:1009C000D8A432D001010851D8A42ED068EC2AF066
:1009D0006FEC2AF00101A351B5EC1CF04DEC2AF0AC
:1009E00023D00001DD51000AD8B4BED7010AD8B423
:1009F000E3D71AD0DC51D8B417D001010851D8B4CC
:100A000013D00001F451D8A40FD068EC2AF0010EE5
:100A10000001F46F9A0E9F6F990EA06F3E0EA16FAA
:100A2000010EA26F9EEC25F0DF0E0001606F000E3C
:100A3000616F840E626F050E636F1EEC21F000097A
:100A4000D8B440D06FEC2AF033D00001E151B5ECBE
:100A50001CF036D0E2C060F00001616B000E636FE5
:100A6000020E626FA7EC21F000016051DE6F0FD023
:100A7000DEC0A9F125D0DEC0A5F122D0DEC0A6F1EE
:100A80001FD0DEC0A7F11CD0DEC0A8F119D0E15103
:100A9000070AD8B4EDD74C0AD8B4EDD7070AD8B4B2
:100AA000EDD7010AD8B4EDD7030AD8B4EDD708D0F2
:100AB0000001DF51B00AD8B4CDD7700AD8B4C5D779
:100AC0004DEC2AF0B10E0001606F010E616FBD0E9A
:100AD000626F010E636F000E656F080E646F5DEC50
:100AE00023F060C0D7F061C0D8F001013451D8A420
:100AF0001DD00001D751D811D8A405D00101BA5199
:100B0000AE19D8B413D068EC2AF0010E0101346F8D
:100B1000080E0201D36F9A0E00019F6F990EA06F0D
:100B20003E0EA16F010EA26F9EEC25F00101AE51A9
:100B3000D8A403D0AFC1D9F002D0B0C1D9F0000120
:100B4000DA6BB10E6A6F010E6B6F0101AF51CB19F9
:100B5000D8A402D0010E01D0000E00016C6FAEC10E
:100B60006DF0D95129EC07F00101D951DA5DD8A017
:100B700015D0B10E00017E6F010E7F6F080E806FE1
:100B800021EEDBF000EE81F00B0EDBCFEBFFE80691
:100B9000FCE2CFEC23F0000E0101DA6FDDC0DBF0E8
:100BA000AFD604013205D8A411D030511F0B000973
:100BB000D8A40CD00001E78F030E04013119D8A48A
:100BC00002D0010E01D0000E01013E6F040132512E
:100BD000D8A4120030511F0B020AD8A412003451BD
:100BE0000F0B0009D8B4120034510F0B0001746FC1
:100BF000030E74611200200EFC19D8A41200E78FB6
:100C0000040134BF1CD034510F0B0001746F7451B8
:100C1000020D0E0EF324D96E010EF420DA6EDECF33
:100C200078F0DDCF79F0040134510F0B0001746FBF
:100C30007451010D220EF324D96E010E1CD0040153
:100C400034510F0B0001746F7451020DEA0EF3243E
:100C5000D96E000EF420DA6EDECF78F0DDCF79F0B9
:100C6000040134510F0B0001746F7451010D250EF6
:100C7000F324D96E010EF420DA6EDF50776F77B16E
:100C800006D0FB0E7815786FFF0E791504D0040E90
:100C90007811786F7951796F040134BF0BD03451DA
:100CA0000F0B0001746F7451020D0E0EF324D96EF8
:100CB000010E0BD0040134510F0B0001746F7451FD
:100CC000020DEA0EF324D96E000EF420DA6E78C01D
:100CD000DEFF79C0DDFF030E04013119D8A431D045
:100CE00078C0D9FF79C0DAFF0001DFAE1DD0040162
:100CF00034BF0BD034510F0B0001746F7451010DD0
:100D0000220EF324D96E010E0BD0040134510F0BC7
:100D10000001746F7451010D250EF324D96E010E7C
:100D2000F420DA6E0101DF8278C0D9FF79C0DAFFE2
:100D3000000EDB8478C0D9FF79C0DAFF000EDB8EAD
:100D40001200040E00017819786F7951796F78C01C
:100D5000D9FF79C0DAFFDFAE1BD078C0D9FF79C0E8
:100D6000DAFF7F0EDF1678C0D9FF79C0DAFF000EF8
:100D7000DB8C000E6D6F050E6C6F78C06EF079C065
:100D80006FF0000E716F020E706F40EC25F006D010
:100D900078C0D9FF79C0DAFF000EDB8C040E0001A9
:100DA0007819786F7951796F77B306D078C0D9FF09
:100DB00079C0DAFFDFAE33D0040134BF0BD0345139
:100DC0000F0B0001746F7451010D220EF324D96EC4
:100DD000010E0BD0040134510F0B0001746F7451DC
:100DE000010D250EF324D96E010EF420DA6E0101F7
:100DF000DF9278C0D9FF79C0DAFF3B0EDF16000E14
:100E000000016D6F050E6C6F78C06EF079C06FF0E9
:100E1000000E716F020E706F40EC25F006D078C0A6
:100E2000D9FF79C0DAFF3B0EDF16040134510F0BF6
:100E30000001746F7451010D700EF324756F0F0E65
:100E4000F420766F75C0D9FF76C0DAFFFE0EDF168C
:100E500012000001716F02010B51D8B41200000E94
:100E60000A6F000E0001746F000E746F000E7A6F2F
:100E7000000E796F7ABF06D07A512CE1020E795DAF
:100E8000D8B028D0C40E7925D96E020E7A21DA6E38
:100E9000DF50606F715182EC27F000016E6F6E5170
:100EA000646F656B000E676F0A0E666F96EC23F039
:100EB000EC0E00016425D96E020E6521DA6EC60EB5
:100EC0007925E16E020E7A21E26EDFCFE7FF794BE2
:100ED0007A2BD0D76C51D8B404D00201D351080B6F
:100EE000C71300016D51D8B404D00201D251080BD0
:100EF000C613000E00017C6F000E7B6F7CBF06D016
:100F00007C511AE1080E7B5DD8B016D0C80E7B2547
:100F1000D96E020E7C21DA6E090E606F7B516A2554
:100F2000E16E7C516B21E26EE7508FEC28F0DF6EB2
:100F300000017B4B7C2BE2D7000E766F000E756FA5
:100F400076BF08D0765105E1090E755DD8B0CBD0DB
:100F500001D0C9D0000E786F000E776F78BF06D031
:100F600078511DE1020E775DD8B019D07451010D92
:100F7000F3500201C225D96EF450C321DA6EC60EB9
:100F800000017725E16E020E7821E26EE750020142
:100F9000D115DF6E0001742B774B782BDFD7000E55
:100FA0007E6F000E7D6F7EBF08D07E5105E1080E7A
:100FB0007D5DD8B091D001D08FD0000E726F000E41
:100FC000806F000E7F6F80BF06D0805171E1070EE9
:100FD0007F5DD8B06DD0000E736F010E7F25606FFE
:100FE000000E8021616F000E636F090E626FBAEC14
:100FF00028F000017D516A25D96E7E516B21DA6E91
:10100000DF506E6F6F6B60516E5D6F51800A706F55
:101010006151800A7059D8A002D0010E34D07D51A0
:101020006A25D96E7E516B21DA6EDF506E6F6F6B61
:101030007FC060F080C061F0000E636F090E626FC8
:10104000BAEC28F000016E51605D6151800A706F4A
:101050006F51800A7059D8B017D0C80E7D25D96E4F
:10106000020E7E21DA6EDF506E6F6F6B6E51755D12
:101070007651800A706F6F51800A7059D8B002D0D3
:10108000010E01D0000E736F7FC06EF073C06FF061
:101090006E2B02D0D8906F376E2FFCD700016F51A6
:1010A00072137F4B802B80BF96D7805101E18FD781
:1010B0007451010DF3500201C225D96EF450C321C1
:1010C000DA6E72C0DFFF0001742B7D4B7E2B7EBF7A
:1010D00074D77E5101E16BD7754B762B76BF3AD72B
:1010E000765101E131D7010E02010A6F000E0B6F3C
:1010F00012000001696F000169A1A0D021EE41F04A
:101100006051D9266151DA22DF50626F6251050DBC
:10111000F3506025D96EF4506121DA6E6951F00BFD
:10112000DF6E21EE41F06051D9266151DA22DF50A5
:10113000626F6251050D60C063F061C064F0F350EE
:101140006327F4506423010E6325D96E000E6421D9
:10115000DA6E69510F0BDF6E50D021EE41F0605115
:10116000D9266151DA22DF50626F6251050D60C0ED
:1011700063F061C064F0F3506327F4506423040EFD
:101180006325D96E000E6421DA6E020E19D021EEAD
:1011900041F06051D9266151DA22DF50626F62510D
:1011A000050D60C063F061C064F0F3506327F45034
:1011B0006423040E6325D96E000E6421DA6E010EDD
:1011C000DF6E33D021EE41F06051D9266151DA2231
:1011D000DF50626F6251050D60C063F061C064F062
:1011E000F3506327F4506423040E6325D96E000E78
:1011F0006421DA6EFF0EDF6E120021EE41F06051C5
:10120000D9266151DA22DF50626F6251050DF35029
:101210006025D96EF4506121DA6EDF50B00AD8B47F
:101220009CD7700AD8B4B3D7CDD721EE42F0605125
:10123000D9266151DA22000EDF6E2FD021EE42F066
:101240006051D9266151DA22DF50626F6251010D7F
:10125000020EF326000EF42260C063F061C064F059
:10126000F3506327F450642321EE41F06051D926F6
:101270006151DA22DF50656F6551050DF35063252A
:10128000D96EF4506421DA6E69C0DFFF21EE42F0BE
:101290006051D9266151DA22DF2A21EE41F06051F6
:1012A000D9266151DA22DF50626F6251050D60C0AC
:1012B00063F061C064F0F3506327F4506423040EBC
:1012C0006325D96E000E6421DA6EDF50656F666BA0
:1012D00065BF660721EE42F06051D9266151DA22DE
:1012E000DF50676F686B655167192EE166516819A9
:1012F000D8A4120021EE43F06051D9266151DA22C0
:10130000410EDF6012008A8821EE43F06051D92639
:101310006151DA22DF2A21EE41F06051D926615174
:10132000DA22DF2A21EE41F06051D9266151DA221A
:101330003F0EDF64120021EE41F06051D926615169
:10134000DA22000EDF6E120012000A6E0AA0A0D090
:1013500021EE41F00150D9260250DA22DF50036E0F
:101360000350050DF3500124D96EF4500220DA6EBB
:101370000A50F00BDF6E21EE41F00150D9260250E9
:10138000DA22DF50036E0350050D01C004F002C0E5
:1013900005F0F3500426F4500522010E0424D96E02
:1013A000000E0520DA6E0A500F0BDF6E50D021EED2
:1013B00041F00150D9260250DA22DF50036E03506B
:1013C000050D01C004F002C005F0F3500426F450EE
:1013D0000522040E0424D96E000E0520DA6E020EDA
:1013E00019D021EE41F00150D9260250DA22DF5007
:1013F000036E0350050D01C004F002C005F0F35068
:101400000426F4500522040E0424D96E000E052093
:10141000DA6E010EDF6E33D021EE41F00150D92695
:101420000250DA22DF50036E0350050D01C004F0B4
:1014300002C005F0F3500426F4500522040E0424E3
:10144000D96E000E0520DA6EFF0EDF6E120021EE5F
:1014500041F00150D9260250DA22DF50036E0350CA
:10146000050DF3500124D96EF4500220DA6EDF50DE
:10147000B00AD8B49CD7700AD8B4B3D7CDD721EE70
:1014800042F00150D9260250DA22000EDF6E2FD032
:1014900021EE42F00150D9260250DA22DF50036ECD
:1014A0000350010D020EF326000EF42201C004F0D9
:1014B00002C005F0F3500426F450052221EE41F05D
:1014C0000150D9260250DA22DF50066E0650050D73
:1014D000F3500424D96EF4500520DA6E0AC0DFFF01
:1014E00021EE42F00150D9260250DA22DF2A21EE05
:1014F00041F00150D9260250DA22DF50036E03502A
:10150000050D01C004F002C005F0F3500426F450AC
:101510000522040E0424D96E000E0520DA6EDF5079
:10152000066E076A06BE070621EE42F00150D92674
:101530000250DA22DF50086E096A065008182EE1C0
:1015400007500918D8A4120021EE43F00150D92603
:101550000250DA22410EDF6012008A8821EE43F049
:101560000150D9260250DA22DF2A21EE41F0015043
:10157000D9260250DA22DF2A21EE41F00150D92685
:101580000250DA223F0EDF64120021EE41F00150DA
:10159000D9260250DA22000EDF6E12001200046E0D
:1015A0000450010D6F0EF324D96E010EF420DA6E93
:1015B0000450010D3F0EF324E16E010EF420E26EA3
:1015C000DE50E618D8A42FD00150010D6F0EF32481
:1015D000D96E010EF420DA6E0450010D3F0EF32493
:1015E000E16E010EF420E26EDE50E618D8A41BD0A6
:1015F0000150010D6F0EF324D96E010EF420DA6E46
:101600000150010D3F0EF324E16E010EF420E26E55
:10161000E750D8A403D0036A032A01D0036ADE503E
:101620000318D8B443D00150010D6F0EF324D96EC6
:10163000010EF420DA6E0150010D3F0EF324E16E2D
:10164000010EF420E26EDE50E618D8A431D004502A
:10165000010D3F0EF324D96E010EF420DA6E015015
:10166000010D3F0EF324E16E010EF420E26EDE5018
:10167000E618D8A41DD00150010D3F0EF324D96EF9
:10168000010EF420DA6E0450010D6F0EF324E16EAA
:10169000010EF420E26EE750D8A403D0036A032AB7
:1016A00001D0036ADE500318D8A402D0010E120044
:1016B0000150010D6F0EF324D96E010EF420DA6E85
:1016C0000150010D3F0EF324E16E010EF420E26E95
:1016D000DE50E618D8A42FD00450010D6F0EF3246D
:1016E000D96E010EF420DA6E0150010D3F0EF32485
:1016F000E16E010EF420E26EDE50E618D8A41BD095
:101700000450010D6F0EF324D96E010EF420DA6E31
:101710000450010D3F0EF324E16E010EF420E26E41
:10172000E750D8A403D0036A032A01D0036ADE502D
:101730000318D8B443D00450010D6F0EF324D96EB2
:10174000010EF420DA6E0450010D3F0EF324E16E19
:10175000010EF420E26EDE50E618D8A431D001501C
:10176000010D3F0EF324D96E010EF420DA6E045001
:10177000010D3F0EF324E16E010EF420E26EDE5007
:10178000E618D8A41DD00450010D3F0EF324D96EE5
:10179000010EF420DA6E0150010D6F0EF324E16E9C
:1017A000010EF420E26EE750D8A403D0036A032AA6
:1017B00001D0036ADE500318D8A402D0FF0E120035
:1017C000000E12000001AF51B011B111D8A407D022
:1017D000000EAF6F800EB06F3F0EB16F1200720E31
:1017E000606F310E616F440E626FAFC063F0B0C0C6
:1017F00064F0B1C065F0D5EC20F00001D8B00DD098
:10180000000E0101296F220E286FFF0E0001AF6F3D
:101810007F0EB06F7F0EB16F1200AFC060F0B0C02E
:1018200061F0B1C062F0490E636F3A0E646FC40E8E
:10183000656FD5EC20F00001D8B00DD0000E01018D
:10184000296F220E286F000E0001AF6F000EB06FDF
:10185000000EB16F1200B1AF02D0010E01D0000E28
:10186000B76FB751D8B40ED0AFC060F0B0C061F060
:10187000B1C062F0E1EC28F060C0AFF061C0B0F040
:1018800062C0B1F0AFC072F0B0C073F0B1C074F01C
:10189000AA0E0001756FB80E766F3F0E776FC2EC1F
:1018A00016F072C0AFF073C0B0F074C0B1F0AFC04A
:1018B0009FF0B0C0A0F0B1C0A1F00FEC19F09FC034
:1018C000B2F0A0C0B3F0A1C0B4F0B2C090F0B3C009
:1018D00091F0B4C092F046EC16F090C0B5F091C013
:1018E000B6F0AFC09CF0B0C09DF0B1C09EF0B5C0E6
:1018F00068F0B6C069F0DBEC27F068C09FF069C003
:10190000A0F06AC0A1F061EC27F09CC0AFF09DC0D0
:10191000B0F09EC0B1F0AFC09CF0B0C09DF0B1C0BF
:101920009EF0800E00019F6F080EA06F000EA26F48
:10193000090EA16F81EC19F09CC0A8F09DC0A9F020
:101940009EC0AAF0B5C0ABF0B6C0ACF0C2EC1AF0C5
:10195000A8C0AFF0A9C0B0F0AAC0B1F00001B75163
:10196000D8B425D0AF290EE17F0EB0190BE17F0E60
:10197000B119D8A407D0000EAF6F000EB06F000EE3
:10198000B16F1200000E816F800E826F3F0E836F69
:10199000AFC084F0B0C085F0B1C086F0B6EC17F0EF
:1019A00081C0AFF082C0B0F083C0B1F01200AFC010
:1019B000AFF0B0C0B0F0B1C0B1F0120092C096F07C
:1019C0000001976B986B9135963701E3978196519B
:1019D0009B6F95C096F0976B986B9435963701E3A3
:1019E000978196519A6F9B51D8B40BD09A519B5DB9
:1019F000D8B00ED09B5100089A25966F180E9665A8
:101A000007D093C090F094C091F095C092F012006E
:101A10009A51D8B40BD09B519A5DD8B00ED09A5140
:101A200000089B25966F180E966507D090C090F021
:101A300091C091F092C092F01200060E996F92BF81
:101A4000998F95BF998D918FFF0E9017FF0E91176B
:101A5000000E9217948FFF0E9317FF0E9417000E2F
:101A600095179A519B5DD8B01BD0D8909337943777
:101A700095379A079B519A19D8B40DD0990799C0F8
:101A800096F0070E9617D8B406D0EFD7D8909233B9
:101A9000913390339B2B9A519B19D8B41FD0F6D712
:101AA0009B519A5DD8B01AD0D89090379137923721
:101AB0009B079B519A19D8B40DD0990799C096F0FD
:101AC000070E9617D8B406D0EFD7D8909533943335
:101AD00093339A2B9A519B19D8A4F7D799AF0CD06E
:101AE000FF0E901BFF0E911BFF0E921B010E902705
:101AF000000E9123000E922399AD0CD0FF0E931B84
:101B0000FF0E941BFF0E951B010E9327000E9423CE
:101B1000000E9523000E996F9051932791519423B5
:101B20009251952395AF0ED0FF0E931BFF0E941B81
:101B3000FF0E951B010E9327000E9423000E952394
:101B4000010E996F93C060F094C061F095C062F08F
:101B50009BC063F099C064F0C2EC1DF060C090F0CF
:101B600061C091F062C092F012000600FACF49F015
:101B7000FBCF4AF0E9CF4BF0EACF4CF0E1CF4DF08C
:101B8000E2CF4EF0D9CF4FF0DACF50F0F3CF51F093
:101B9000F4CF52F0F6CF53F0F7CF54F0F8CF55F022
:101BA000F5CF56F05FC057F060C058F061C059F0F3
:101BB00062C05AF0F2A435D0F2940201D0510A0D5D
:101BC000F350C0251F6EF450C121206E0A0E216E05
:101BD00022EED4F000EE22F00B0EDBCFEBFFE80696
:101BE000FCE273EC24F00201D02B080ED06507D084
:101BF0000A51D8A418EC29F0000E0201D06F01019F
:101C0000C651D8B405D03DEC17F0000E010101D04B
:101C1000010EC76FC551D8A406EC29F00101DA2BDB
:101C200040D09EA020D09E9001010C4B0D2B0A515C
:101C30000C5D0D51800A486E0B51800A4858D8A09F
:101C400030D0000E0D6F000E0C6F010E086F2AECE5
:101C500029F001010951D8B403D0000E086F21D03A
:101C60007DEC2AF01ED09EAA1CD08A98000E5B6ED6
:101C700016D0AECF5BF0ABB402D0ABA209D0840ECD
:101C8000016E050E026E8EEC1BF0AB98AB8807D090
:101C9000840E016E050E026E5B50A5EC09F09EBA33
:101CA000E8D75AC062F059C061F058C060F057C020
:101CB0005FF056C0F5FF55C0F8FF54C0F7FF53C0A2
:101CC000F6FF52C0F4FF51C0F3FF50C0DAFF4FC01F
:101CD000D9FF4EC0E2FF4DC0E1FF4CC0EAFF4BC050
:101CE000E9FF4AC0FBFF49C0FAFF5F921100000EF6
:101CF0000001C46FB851B911BA11D8A41ED0000E9A
:101D0000606F000E616F000E626FBBC063F0BCC0FD
:101D100064F0BDC065F0D5EC20F00001D8A005D07E
:101D2000000E0101296F210E286F000E0001B86F0F
:101D3000000EB96F000EBA6F1200BB51BC11BD117D
:101D4000D8A407D0000EB86F800EB96F3F0EBA6FDF
:101D50001200BAAF43D0BBC090F0BCC091F0BDC080
:101D600092F046EC16F090C0C5F091C0C6F092C05B
:101D7000C7F093C0C8F0C5C068F0C6C069F0C7C05E
:101D80006AF0C8C06BF06FEC25F00001BB51681918
:101D900007E1BC51691904E1BD516A19D8B40DD0ED
:101DA000000E0101296F210E286F000E0001B86F8F
:101DB000000EB96F000EBA6F1200C551010BC46F4F
:101DC000B8C060F0B9C061F0BAC062F0E1EC28F0D0
:101DD00060C0B8F061C0B9F062C0BAF0B8C0A8F095
:101DE000B9C0A9F0BAC0AAF002EC13F0A8C0BEF0C6
:101DF000A9C0BFF0AAC0C0F0BEC072F0BFC073F0EF
:101E0000C0C074F0BBC075F0BCC076F0BDC077F048
:101E1000C2EC16F072C0C1F073C0C2F074C0C3F05F
:101E2000C1C0AFF0C2C0B0F0C3C0B1F0E2EC0BF083
:101E3000AFC0B8F0B0C0B9F0B1C0BAF00001C45141
:101E4000D8B40FD0B8C060F0B9C061F0BAC062F0C9
:101E5000E1EC28F060C0B8F061C0B9F062C0BAF03F
:101E60001200B8C0B8F0B9C0B9F0BAC0BAF01200E8
:101E70000001FC51D8A411D0000E6D6E000E696EE9
:101E8000160E6F6E9F0E6B6E7B0E696E01D06D86A7
:101E90006DA6FDD7010E0001FC6FFC05D8B46DBA2C
:101EA00008D0000E686E000E696E69806988020EA7
:101EB000FC6F68B469A403D06894F8EC27F06DA2B5
:101EC00002D0A19A120068B069A006D0EEEC0FF023
:101ED000040E0001FC6F689068B869A802D048EC55
:101EE00028F068AC1CD069AC0FD0000E00016D6FFB
:101EF000730E6C6F000E6E6F000E6F6F000E716FC1
:101F0000010E706F40EC25F0689C3BEC29F000015D
:101F1000F851D8A4F807F851D8B45BEC1AF068BAB5
:101F200069AA02D040EC27F068B269A210D07F0EF7
:101F300000016D6F6C69000E6E6F000E6F6F000E0A
:101F4000716F010E706F40EC25F0000E6A6E040E8A
:101F50000001FC6102D0A19A120069A63DD0000EDA
:101F60007B6F030E7B6501D037D068A635D06CCF70
:101F7000FEF0FE31E832E8320F0BF96F6896FEB5DD
:101F800007D0F951010D220EF324D96E010E07D0AE
:101F90000001F951010D250EF324D96E010EF42034
:101FA000DA6E0101DF700001F951D8A403D05BECB7
:101FB0001FF00FD0000E00016D6F720E6C6FFE0EE1
:101FC0006E6F000E6F6F000E716F000E706F40EC41
:101FD00025F000017B2BC5D7A19A1200A09A000E14
:101FE0006A6E000E686E000E706E710E0001606FFA
:101FF0000F0E616F000E636F000E626F000E656F53
:10200000020E646F60EC28F0160E6F6E9F0E6B6E02
:102010007B0E696E000E0001686F0B0E686501D0C3
:102020000ED06851040D000EF324D96E040EF42076
:10203000DA6EDE6ADE6ADE6ADD6A682BEED76D8CE8
:10204000000E6E6E6D986D9C6896000E0001E76F35
:10205000000E0101036F000E056F000E046F68B6DD
:10206000F3D7010E3B6F010E3A6F000E396F000E71
:10207000386F000E3D6F000E0001686F020E68653C
:1020800001D02ED06851020DEA0EF324D96E000E55
:10209000F420DA6E000EDE6E000EDD6E6851020D69
:1020A0000E0EF324D96E010EF420DA6E000EDE6EF1
:1020B000000EDD6E6851010D250EF324D96E010E60
:1020C000F420DA6E000EDF6E6851010D220EF3244B
:1020D000D96E010EF420DA6E000EDF6E682BCED7BB
:1020E000080EEA6F040EEB6F160E706E040E0401FC
:1020F000036F300E026F080E016F040E006F008F29
:10210000000E0001FF6F000E0101186F000E196F25
:10211000000E1A6F000E1B6F000E376F000E0001CD
:10212000FC6F1200000ED5B0010ED5B20209D5B475
:1021300004090001D36FD351A6EC28F068C0BBF0AE
:1021400069C0BCF06AC0BDF0000E0001B86F000E9F
:10215000B96F400EBA6F77EC0EF0B8C0D0F0B9C0CE
:10216000D1F0BAC0D2F0000E0001756F800E766F0C
:10217000450E776FD0C072F0D1C073F0D2C074F04A
:10218000C2EC16F072C090F073C091F074C092F07F
:1021900046EC16F090C0C9F091C0CAF092C0CBF0E6
:1021A00093C0CCF0000E0001756F800E766F3F0E6D
:1021B000776FC9C068F0CAC069F0CBC06AF0CCC004
:1021C0006BF0A9EC22F068C072F069C073F06AC0CD
:1021D00074F0C2EC16F072C081F073C082F074C06B
:1021E00083F0970E0001846F980E856F4B0E866FFB
:1021F000B6EC17F081C0CDF082C0CEF083C0CFF036
:10220000929492969298CDC084F0CEC085F0CFC0C3
:1022100086F0000E0001816F000E826F3E0E836F0C
:10222000B6EC17F081C090F082C091F083C092F0BC
:1022300046EC16F0000190510101D96F000EDA6FE3
:102240000A0EDD6F540EDE6FF20EE16F530EE26F79
:10225000DA0EE56F530EE66FDB0E0001626F010EC2
:10226000636F2FEC28F01200929A949493986A0E60
:102270000201D66F540ED76F520EDA6F540EDB6F19
:102280003A0EDE6F540EDF6FD40E0001626F020E45
:10229000636F2FEC28F00201D169000ED06F010EA0
:1022A0000B6F000E0A6F0C0EC06F020EC16F660E30
:1022B000C26F020EC36F000E0001D26F000ED16F0D
:1022C000D2BF06D0D2511FE15A0ED15DD8B01BD07B
:1022D000D1510201C025D96E0001D2510201C121A4
:1022E000DA6E000EDF6E0001D1510201C225D96EF7
:1022F0000001D2510201C321DA6E000EDF6E00012F
:10230000D14BD22BDDD7000ED46F000ED36FD4BFCC
:1023100006D0D45147E1020ED35DD8B01200010EB1
:10232000D325C96F000ED421CA6FC91FCA1FC94B5C
:10233000CA2B020EC925686F000ECA21696FDBEC3B
:1023400027F068C0CBF069C0CCF06AC0CDF0CBC03C
:10235000BBF0CCC0BCF0CDC0BDF0000E0001B86F2A
:10236000200EB96F410EBA6F77EC0EF0B8C0CEF008
:10237000B9C0CFF0BAC0D0F0C40E0001D325D96ED9
:10238000020ED421DA6ECEC090F0CFC091F0D0C052
:1023900092F046EC16F00001D8909035DF6ED34BEA
:1023A000D42BB5D71200840E0001606F050E616F4B
:1023B00029EC1BF0400E0001606F040E616F29ECE8
:1023C0001BF09E9A9F9A9D8AF28C120E0001716FEB
:1023D0007A0E726F000E736F000E746F000E606FD6
:1023E0006C0E616FDC0E626F020E636F71C06DF078
:1023F00072C06EF073C06FF074C070F0060ED890AB
:102400006D376E376F377037E82EF9D76DC064F0CF
:102410006EC065F06FC066F070C067F0EAEC21F046
:10242000FF0E00016025756FFF0E6121766FFF0EB4
:102430006221776FFF0E6321786F78BF36D07851B5
:10244000771103E17605D8A030D0000E606F6C0ED6
:10245000616FDC0E626F020E636F71C06DF072C04F
:102460006EF073C06FF074C070F0040ED8906D37CA
:102470006E376F377037E82EF9D76DC064F06EC0D5
:1024800065F06FC066F070C067F0EAEC21F0FF0EF7
:1024900000016025756FFF0E6121766FFF0E6221CE
:1024A000776FFF0E6321786FAC8478BF07D07851C7
:1024B000771176110FE17529D8B0120075C0AFFF02
:1024C000948E948CAC989D8AAB8EAB88AB9CAC8A76
:1024D000AC9C12001200800E04013019D8A4120026
:1024E000C00E0001E76F82D0D30E0001E46F080E2A
:1024F000E56F000EE96F120EE86F12000401325111
:10250000D8A440D03251020D070EF324F66E080E07
:10251000F420F76E0900F5CFE4F00A00F5CFE5F0FE
:10252000020E0001E425606F000EE521616F60C0BE
:10253000F6FF61C0F7FFF86A070EF76403D00800E2
:10254000F55005D0F6CFE9FFF7CFEAFFEF500001D5
:10255000E86F030EE425606F000EE521616F60C037
:10256000F6FF61C0F7FFF86A070EF76403D00800B2
:10257000F55005D0F6CFE9FFF7CFEAFFEF500001A5
:10258000E96F1200000E0001E76F1200030E040154
:10259000326124D03251020D010EF324F66E080E82
:1025A000F420F76E0900F5CFE4F00A00F5CFE5F06E
:1025B000E4C0F6FFE5C0F7FFF86A070EF76403D042
:1025C0000800F55005D0F6CFE9FFF7CFEAFFEF504E
:1025D0000001606F6051E86FE96B1200000E0001AE
:1025E000E76F1200000E0001E76F12000401335183
:1025F000010AD8B479D7030AD8B480D7010AD8B46D
:10260000C5D7F0D70001AAAF0DD0000E0101296F88
:10261000210E286F000E0001A86F000EA96F000E9A
:10262000AA6F1200A851A911AA11D8A40DD0000EAA
:102630000101296F220E286F000E0001A86F000E05
:10264000A96F000EAA6F1200000E756F000E766F54
:10265000400E776FAB0E636F000E646FA8C060F022
:10266000A9C061F0AAC062F08BEC20F060C072F0EB
:1026700061C073F062C074F0C2EC16F072C090F0EA
:1026800073C091F074C092F0000E0001936F800E41
:10269000946FBF0E956FDEEC0CF090C0A8F091C067
:1026A000A9F092C0AAF00001AB07D8A0AC07A8C05F
:1026B0009CF0A9C09DF0AAC09EF09E0E9F6F080ED0
:1026C000A06F000EA26F080EA16F81EC19F09CC0E4
:1026D000A8F09DC0A9F09EC0AAF0720E0001756F0F
:1026E000310E766F3F0E776FABC068F0ACC069F00B
:1026F000DBEC27F068C072F069C073F06AC074F058
:10270000C2EC16F072C090F073C091F074C092F0F9
:10271000A8C093F0A9C094F0AAC095F0DEEC0CF02C
:1027200090C0A8F091C0A9F092C0AAF012000001D8
:1027300020EE01F0F251D926F351DA22DF50616F19
:1027400061510101045D000E0559D8A004C161F07A
:10275000000161510101045F000E055B000E0001E4
:10276000606F13D06051010D380EF324D96E040E42
:10277000F420DA6E00C1E1FF01C1E2FFDFCFE7FF25
:102780000101004B012B0001602B6151605DD8A05D
:10279000E9D7010104510511D8B433D0000120EE6E
:1027A00001F0F051D926F151DA22080EDF6E20EE49
:1027B00002F0F051D926F151DA22380EDE6E040E05
:1027C000DD6EF2C0D9FFF3C0DAFFDFBC0DD0F0C080
:1027D000D9FFF1C0DAFF480EDF6EF0C0D9FFF1C0BB
:1027E000DAFF000EDB8E1200F0C0D9FFF1C0DAFF75
:1027F000080EDF6EF0C0D9FFF1C0DAFF000EDB8EED
:102800001200000120EE01F0F051D926F151DA2238
:10281000080EDF6E20EE02F0F051D926F151DA22D7
:10282000300EDE6E040EDD6EF0C0D9FFF1C0DAFFAF
:10283000040EDF6EF0C0D9FFF1C0DAFF000EDB8EB0
:102840000101039F0001F751D8A412005BEC1AF0BC
:102850001200020E00019F25A86F000EA021A96F93
:10286000000EAC6F000EAB6FAC510FE1080EAB5D0C
:10287000D8B00BD0AB51A825D96EAC51A921DA6ED6
:10288000000EDF6EAB4BAC2BEFD7000EAA6F000E25
:10289000AE6F000EAD6FAE516DE1080EAD5DD8B0FC
:1028A0001200000EB06F000EAF6FB0BF06D0B05177
:1028B0005CE1060EAF5DD8B058D0AD51060DF350B7
:1028C000AF25AA6FAAC0A1F0070EA117AFC0A2F052
:1028D000040EAD25A36F000EAE21A46F9FC0D9FFDB
:1028E000A0C0DAFFDECFA5F0DDCFA6F0A351A5256D
:1028F000D96EA451A621DA6EDF50A76FA22B02D0A9
:10290000D890A733A22FFCD7010E0001A717A12B47
:1029100002D0D890A737A12FFCD7000E0001846FFA
:10292000000E856F410E866FAA51A6EC28F068C094
:1029300081F069C082F06AC083F0B6EC17F081C004
:1029400090F082C091F083C092F046EC16F0000146
:102950009051010DF350A825D96EF450A921DA6EDB
:10296000A751DF12AF4BB02BA0D7AD4BAE2BAE5162
:1029700001E193D712006D980001E7BF3DD001013E
:1029800003AF0ED0020E0001FA6F01013851D8B426
:102990006BEC1EF0000E01013A6F000E3B6F12004F
:1029A000000120EE01F0F051D926F151DA22080E93
:1029B000DF6E20EE02F0F051D926F151DA22300E0E
:1029C000DE6E040EDD6EF0C0D9FFF1C0DAFF0C0E32
:1029D000DF6EF0C0D9FFF1C0DAFF000EDB8EEAC077
:1029E000D9FFEBC0DAFF040EDF6EEAC0D9FFEBC0FF
:1029F000DAFF000EDB8E1200040130AF14D0010E9E
:102A00000001FA6F01013951D8B46BEC1EF0000ED1
:102A100001013A6F000E3B6F0001F751D8A412007C
:102A20005BEC1AF01200020E0001FA6F20EE01F0CA
:102A3000F051D926F151DA22080EDF6E20EE02F0B5
:102A4000F051D926F151DA22300EDE6E040EDD6E21
:102A5000F0C0D9FFF1C0DAFF040EDF6EF0C0D9FF7D
:102A6000F1C0DAFF000EDB8E000E01013A6F000E9E
:102A70003B6F0001F751D8A412005BEC1AF0120072
:102A80000001686F00016051D8B407D06851020D91
:102A9000EA0EF324D96E000E06D06851020D0E0E18
:102AA000F324D96E010EF420DA6EDECF69F0DDCFAB
:102AB0006AF069516A11D8A405D0000E606F000E4B
:102AC000616F120020EE02F06951D9266A51DA22B4
:102AD00061C0DEFF62C0DDFF20EE01F06951D92642
:102AE0006A51DA2263C0DFFF69C0D9FF6AC0DAFF2A
:102AF000400EDF1669C0D9FF6AC0DAFF000EDB8620
:102B000069C0D9FF6AC0DAFF000EDB8E6051D8B40D
:102B100018D06851020DEA0EF324D96E000EF4208D
:102B2000DA6EDECF64F0DDCF65F0040E6419666FF7
:102B30006551676F6851020DEA0EF324D96E000EDD
:102B400017D06851020D0E0EF324D96E010EF42039
:102B5000DA6EDECF64F0DDCF65F0040E6419666FC7
:102B60006551676F6851020D0E0EF324D96E010E88
:102B7000F420DA6E66C0DEFF67C0DDFF69C060F07A
:102B80006AC061F01200000E0001A86F000EA76F6E
:102B9000A8BF08D0A85105E1080EA75DD8B0120063
:102BA00001D01200000EA56F000EAA6F000EA96FD3
:102BB000AABF06D0AA514CE1060EA95DD8B048D0F4
:102BC000A751060DF350A925A66FA9C0A1F0A6C074
:102BD000A2F0070EA217000E846F000E856F410E43
:102BE000866FA651A6EC28F068C081F069C082F01B
:102BF0006AC083F0B6EC17F081C090F082C091F00B
:102C000083C092F046EC16F000019051010D020EC7
:102C1000F326000EF422F3509F25D96EF450A02124
:102C2000DA6EDF50A36FA22B02D0D890A333A22F6D
:102C3000FCD7010E0001A317A12B02D0D890A33717
:102C4000A12FFCD70001A351A513A94BAA2BB0D7E4
:102C5000040EA725A16F000EA821A26F9FC0D9FF67
:102C6000A0C0DAFFDECFA3F0DDCFA4F0A151A325F1
:102C7000D96EA251A421DA6EA5C0DFFFA74BA82B05
:102C8000A8BF90D7A85101E187D7120092C094F055
:102C90000001956B966B9135943701E395819451C2
:102CA0009E6F9E51D8A409D0000E906F000E916FB8
:102CB000000E926F000E936F1200170E946F90C06B
:102CC00095F091C096F092C097F09429986F04D037
:102CD000D890973396339533982FFAD700019551B2
:102CE000996F918FFF0E9017FF0E9117000E92179C
:102CF00090519A6F91519B6F92519C6F9D6B8E0E6C
:102D00009E5F9EAF16D09E51800A8F0FD8B009D01B
:102D1000000E906F000E916F000E926F000E936F79
:102D20001200D8909D339C339B339A339E3FF9D742
:102D300015D0170E9E650FD0000E906F000E916F8C
:102D4000000E926F000E936F1200D8909A379B3747
:102D50009C379D379E079E51D8A4F7D79951D8B478
:102D600008D09D1F9C1F9B1F9A6D000E9B239C23C8
:102D70009D239AC090F09BC091F09CC092F09DC0A2
:102D800093F0120074C078F00001796B7A6B7335A0
:102D9000783701E3798178517B6F7B51D8A407D0D4
:102DA000000E726F000E736F000E746F120077C00A
:102DB00078F0796B7A6B7635783701E379817851E1
:102DC000806F8051D8A407D0000E726F000E736F11
:102DD000000E746F120080517B0F7B2774C080F04F
:102DE0007751801B800E8017738F768FFF0E7517BB
:102DF000FF0E7617000E7717000E7C6F000E7D6FAA
:102E0000000E7E6F070E7F6F72A106D075517C2772
:102E100076517D2377517E23D89074337333723388
:102E2000D8907537763777377F2FEED7090E7F6FBB
:102E300072A106D075517C2776517D2377517E2370
:102E4000D890743373337233D8907E337D337C33B0
:102E50007F2FEED77CC060F07DC061F07EC062F055
:102E60007BC063F080C064F0C2EC1DF060C072F003
:102E700061C073F062C074F012000101A051D8A4C7
:102E800024D06F0E016E010E026E3F0E036E010E16
:102E9000046E000E066E300E056E1EEC27F021EE5D
:102EA000CDF000EE02F00B0EDBCFEBFFE806FCE20C
:102EB000A5EC29F021EECDF000EE02F00B0EDBCFF9
:102EC000EBFFE806FCE2B4EC29F0300E0101A06152
:102ED00003D08EEC26F01200000E01019F6F41C15D
:102EE000A1F1A30E056E010E066E000E076EC8C19D
:102EF00008F0C9C109F0010E016E000ECFEC0AF016
:102F00000A6EA8EC24F0000E476E000E466E475085
:102F100027E1080E465CD8B023D0040E4624446E48
:102F2000000E4720456EA10E4424056E010E45207B
:102F3000066E000E076E000E096E3F0E086E4650BC
:102F4000030DF350040F016E4650030DF350030FB1
:102F5000CFEC0AF00A6EA8EC24F0464A472AD7D7ED
:102F6000000E0101A06F010E9F6F120083C087F059
:102F70000001886B896B8235873701E3888187512F
:102F80008E6F8E51D8A407D0000E816F000E826F15
:102F9000000E836F120086C087F0886B896B8535C1
:102FA000873701E3888187518F6F8F51D8A407D06D
:102FB000000E816F000E826F000E836F1200000EF4
:102FC0008B6F000E8C6F000E8D6F8F51890F8E5F8F
:102FD00083C08FF086518F1B800E8F17828FFF0E5C
:102FE0008117FF0E8217000E8317858FFF0E84173F
:102FF000FF0E8517000E8617180E8A6FD8908B3734
:103000008C378D378451815D855182598651835922
:10301000D8A007D08451815F8551825B8651835B44
:103020008B81D8908137823783378A2FE7D78BC03F
:1030300060F08CC061F08DC062F08EC063F08FC014
:1030400064F0C2EC1DF060C081F061C082F062C02B
:1030500083F012000001E78F710E606F0F0E616F39
:10306000000E636F000E626F000E656F020E646FDC
:1030700060EC28F0000E0001606F040E616F000E1E
:10308000636F000E626F000E656F300E646F60EC50
:1030900028F06D8C000E0001746F020E746501D073
:1030A00016D07451010D250EF324D96E010EF420B3
:1030B000DA6E000EDF6E7451010D220EF324D96E0C
:1030C000010EF420DA6E000EDF6E742BE6D7F60EDA
:1030D000606F010E616F000E636F000E626F000E75
:1030E000656F020E646F60EC28F06D9C080E0001A5
:1030F000EA6F040EEB6F000EF26F040EF36FF2C076
:10310000F0F0F3C0F1F032C4FFF0FF51D8A403D0C7
:10311000100EFC6F1200000E6D6F010E6C6FFF0E33
:103120006E6F000E6F6F000E716F010E706F40ECCE
:1031300025F0200E0001FC6F120004013039E83246
:10314000030B0009D8A4120048D00001E78F080E35
:10315000FC6F12006BEC12F012002AEC18F0120057
:10316000FF0E0001E46F000EE56FE781010EE86FCE
:10317000E78F120011EC1DF01200D1EC05F01200E7
:1031800004013451010DF60EF3240001E46F010E29
:10319000F420E56FE781010EE86FE78F1200000170
:1031A000E78F04013451010DF60EF324D96E010EA0
:1031B000F420DA6E32C4DFFF1200000E00016D6FE2
:1031C000020E6C6F000E6E6F000E6F6F000E716F4F
:1031D000000E706F40EC25F0120004013151000A1E
:1031E000D8B4C8D7010AD8B4C8D7020AD8B4C5D74A
:1031F000060AD8B4AAD7030AD8B4ACD7010AD8B4FF
:10320000DCD70F0AD8B4ACD7010AD8B4A6D7030AC2
:10321000D8B4B6D7010AD8B4C2D7070A12009FC0E3
:1032200060F0A0C061F0A1C062F0A50E0001636F64
:10323000000E646F8BEC20F00001A6AF10D0A1AFA0
:1032400007D0000E9F6F800EA06FBF0EA16F1200FF
:10325000000E9F6F000EA06F000EA16F1200A6510E
:1032600004E1150EA55DD8A007D09FC09FF0A0C0B7
:10327000A0F0A1C0A1F012009FC090F0A0C091F0FA
:10328000A1C092F046EC16F090C068F091C069F0D1
:1032900092C06AF093C06BF0A9EC22F068C0A2F073
:1032A00069C0A3F06AC0A4F09FC060F0A0C061F044
:1032B000A1C062F0A2C063F0A3C064F0A4C065F036
:1032C000D5EC20F00001D8B015D0A2C090F0A3C07A
:1032D00091F0A4C092F0000E936F800E946FBF0E19
:1032E000956FDEEC0CF090C09FF091C0A0F092C002
:1032F000A1F01200A2C09FF0A3C0A0F0A4C0A1F052
:103300001200A1C060F0A2C061F0000E0001636F66
:10331000030E626FBAEC28F09FC0A3F0A0C0A4F027
:1033200000016051A3276151A423A3C0F6FFA4C0EC
:10333000F7FF0900F5CFA5F00900F5CFA6F00A00C8
:10334000F5CFA7F040D0A5C075F0A6C076F0A7C015
:1033500077F09CC072F09DC073F09EC074F0C2EC18
:1033600016F072C090F073C091F074C092F0000E2D
:103370000001636F030E626FA107D8A0A207A1C06E
:1033800060F0A2C061F0BAEC28F09FC0A3F0A0C02A
:10339000A4F000016051A3276151A423A3C0F6FF4C
:1033A000A4C0F7FF0900F5CF93F00900F5CF94F022
:1033B0000A00F5CF95F0DEEC0CF090C0A5F091C0BE
:1033C000A6F092C0A7F00001A151A211D8A4BBD7CA
:1033D000A5C09CF0A6C09DF0A7C09EF01200080EEC
:1033E0000001606FE95110E1080EE85DD8B00CD023
:1033F000E8C060F0FB51D8A402D0010E04D0FB0558
:10340000D8A402D0020EFB6F6051E85F000EE95BAA
:1034100020EE01F0EA51D926EB51DA2260C0DFFF3D
:10342000380E0101306F040E316F0001E7A11ED08C
:103430003ED0E4C0F6FFE5C0F7FFF86A30C1D9FF1F
:1034400031C1DAFF070EF76403D00800F55005D04C
:10345000F6CFE9FFF7CFEAFFEF50DF6E0001E44B54
:10346000E52B0101304B312B000160076051D8B4CE
:103470001200DFD7E4C0F6FFE5C0F7FFF86A30C1FD
:10348000D9FF31C1DAFF070EF76403D00800F55009
:1034900005D0F6CFE9FFF7CFEAFFEF50DF6E00016E
:1034A000E44BE52B0101304B312B000160076051EB
:1034B000D8B41200DFD701013B51D8A41200010E8D
:1034C0003B6F3A51D8A41200010E3A6F020E000170
:1034D000FA19D8A415D020EE01F0EA51D926EB5103
:1034E000DA22000EDF6EEAC0D9FFEBC0DAFF480E29
:1034F000DF6EEAC0D9FFEBC0DAFF000EDB8E1200F0
:10350000FA05D8A41200000E01013C6F000120EE64
:1035100001F0F251D926F351DA22080EDF6E20EEC7
:1035200002F0F251D926F351DA22300EDE6E040E8B
:10353000DD6EF2C0D9FFF3C0DAFF040EDF6EF2C019
:10354000D9FFF3C0DAFF000EDB8E010E01013C6FE4
:10355000000120EE01F0F051D926F151DA22080ED7
:10356000DF6E20EE02F0F051D926F151DA22300E52
:10357000DE6E040EDD6EF0C0D9FFF1C0DAFF800E02
:10358000DF6E12000001A851A911AA11D8A407D01A
:10359000000EA86F000EA96F000EAA6F1200AA51AC
:1035A0007F0BAD6FAE6BD890AD37AE37AD51AB275B
:1035B000AE51AC23A9AF03D0AD6BAD2B02D000014F
:1035C000AD6BAD51AB27000EAC23ACAF0DD0000EF0
:1035D0000101296F220E286F000E0001A86F000E56
:1035E000A96F000EAA6F1200ACBF17D0AC05D8A00F
:1035F00014D0000E0101296F220E286F0001AAAF1E
:1036000006D0FF0EA86F7F0EA96FFF0EEBD7FF0E3F
:10361000A86F7F0EA96F7F0EE5D7AC35AC31AE6FCA
:10362000AB31AD6FAA51AD19800BAD19AA6FABC00C
:10363000ADF0010EAD17AD33AD33A951AD197F0B10
:10364000AD19A96FA8C0A8F0A9C0A9F0AAC0AAF096
:103650001200000121EE40F06051D9266151DA22BA
:10366000000EDF6E21EE41F06051D9266151DA2261
:10367000000EDF6E21EE42F06051D9266151DA2250
:10368000000EDF6E21EE43F06051D9266151DA223F
:10369000000EDF6E000E656F3F0E656501D01200F3
:1036A0006551050DF3506025D96EF4506121DA6E35
:1036B000000EDF6E6551050D60C062F061C063F001
:1036C000F3506227F4506323010E6225D96E000E79
:1036D0006321DA6E000EDF6E000E646F010E64650A
:1036E00001D01AD06451010D020EF326000EF4220F
:1036F00060C062F061C063F0F3506227F45063234E
:103700006551050DF3506225D96EF4506321DA6ED0
:10371000000EDF6E642BE2D7652BBED721EE40F0A2
:103720000150D9260250DA22000EDF6E21EE41F060
:103730000150D9260250DA22000EDF6E21EE42F04F
:103740000150D9260250DA22000EDF6E21EE43F03E
:103750000150D9260250DA22000EDF6E000E066EEE
:103760003F0E066401D012000650050DF3500124EF
:10377000D96EF4500220DA6E000EDF6E0650050D91
:1037800001C003F002C004F0F3500326F4500422F9
:10379000010E0324D96E000E0420DA6E000EDF6ED7
:1037A000000E056E010E056401D01AD00550010D02
:1037B000020EF326000EF42201C003F002C004F052
:1037C000F3500326F45004220650050DF350032451
:1037D000D96EF4500420DA6E000EDF6E052AE2D7AF
:1037E000062ABED7EAC0D9FFEBC0DAFF0001000EFF
:1037F000DFBC010E616F040EEA19EA6FEB51EB6F4B
:10380000080EFC19D8A40CD0040132517F0B6E6E47
:103810006E50D8B402D0100E01D0040E0001FC6F1F
:10382000FA05D8A43BD020EE02F0EA51D926EB519C
:10383000DA22380EDE6E040EDD6EEFEC19F0020EA9
:103840000001FB19D8A40DD0EAC0D9FFEBC0DAFF04
:10385000040EDF6EEAC0D9FFEBC0DAFF000EDB8E8C
:1038600012006151D8A40DD0EAC0D9FFEBC0DAFF35
:10387000480EDF6EEAC0D9FFEBC0DAFF000EDB8E28
:103880001200EAC0D9FFEBC0DAFF080EDF6EEAC013
:10389000D9FFEBC0DAFF000EDB8E1200010103BF7F
:1038A000039F000E0001FA6F1200010E0001AD6FC0
:1038B00020EE02F0AB51D926AC51DA22DF50B86FBE
:1038C000ABC0AEF0ACC0AFF0000EB96F070EB9657B
:1038D00001D02BD0B951010D020EF326000EF422B7
:1038E000AE0EF324D96E000EF420DA6EB8C060F08C
:1038F000616B000E636F020E626FA7EC21F0000196
:10390000D89060376137D89060376137D89060378A
:103910006137B9516025686F000E6121696F76ECDF
:103920002AF0DF6E0001B92BD1D7AE0E9F6F000ECB
:10393000A06FC3EC15F0000120EE02F0AB51D926C8
:10394000AC51DA22B8C0DFFFB8C0CBF1B90E606F5E
:10395000010E616FABC062F0ACC063F0000E656F2A
:103960000C0E646FB4EC26F012000001C66FC6C0E6
:10397000A3F1A10E0001AB6F010EAC6F55EC1CF072
:10398000CEEC28F0C6C060F00001616B000E636FE2
:10399000020E626FA7EC21F0000160510201E06F9E
:1039A000BA0E0001606F000E616FE00E626F020ED2
:1039B000636F000E656F0C0E646FB4EC26F0000EA2
:1039C0000001C86F000EC76FC85110E10C0EC75D33
:1039D000D8B00CD0C7C06AF0C8C06BF0BA0E6C6F1C
:1039E000F1EC25F00001C74BC82BEED7000ECA6FD3
:1039F000000EC96FCABF06D0CA510FE1020EC95DE1
:103A0000D8B00BD0D20EC925D96E020ECA21DA6EFB
:103A1000080EDF6EC94BCA2BEDD7000E0101346FC3
:103A20001200000E0401386F000E396F3DD0000106
:103A3000E78F01013E05D8A442D0040138833FD06E
:103A40000001E78F3CD00001E78F040134BF0BD0A9
:103A500034510F0B0001606F6051020D0E0EF32404
:103A6000D96E010E0BD0040134510F0B0001606FB1
:103A70006051020DEA0EF324D96E000EF420DA6EC6
:103A8000DECF61F0DDCF62F061C0D9FF62C0DAFF46
:103A9000DFAE15D061C0D9FF62C0DAFFDFA40FD05E
:103AA000010E0401386F0BD030511F0B000AD8B43F
:103AB000BED7010AD8B4C4D7030AD8B4C4D700010A
:103AC000E7AF1200380EE46F040EE56FE781020ED7
:103AD000E86F1200040130511F0BE806D8A4120051
:103AE0003039E832030BE806D8A412003451D8B4B8
:103AF00037D03405D8A4120033D0E70E0001E46FAC
:103B0000010EE56F000EE96F080EE86FE781E78FA1
:103B10001200E70E0001E46F010EE56FE78F12005F
:103B200036C404F137C405F1EF0E0101006F010E38
:103B3000016F000E066F000E076F038F1200EF0E6D
:103B40000001E46F010EE56F000EE96F070EE86FEC
:103B5000C10EE76F120032C435F10001E78F120089
:103B600004013151000AD8B4C8D7010AD8B4D1D75A
:103B7000210AD8B4D5D7010AD8B4E1D7030AD8A40A
:103B80001200E9D700016351D8B405D0605161112A
:103B90006211D8A40CD0000E606F000E616F000E91
:103BA000626F1200632BD890623361336033000E72
:103BB0006015656F000E6115666FFE0E6215676F0A
:103BC000655166116711D8B40CD0ECD7632B010E88
:103BD0006027000E6123000E6223D89062336133A8
:103BE0006033000E6015656F000E6115666FFF0E85
:103BF0006215676F655166116711D8B406D0E6D7B4
:103C00006307D89060376137623761BF03D0020E17
:103C10006361F6D763A1619FD890633363516213E8
:103C20006451D8A4628F60C060F061C061F062C06E
:103C300062F0120093809382000EC76E280EC66E4B
:103C4000000E0001756F800E766F400E776F9FC07B
:103C500068F0A0C069F0A1C06AF0A2C06BF0A9EC46
:103C600022F068C072F069C073F06AC074F0C2ECF0
:103C700016F072C084F073C085F074C086F0970EA1
:103C80000001816F980E826F4B0E836FB6EC17F0B8
:103C900081C090F082C091F083C092F0000E0001CC
:103CA000936F800E946FBF0E956FDEEC0CF090C09A
:103CB000A3F091C0A4F092C0A5F0A3C090F0A4C05E
:103CC00091F0A5C092F046EC16F000019051C86E3C
:103CD000000EC56E1200000E0101396F000E386F24
:103CE000020E0001FA19D8A41FD020EE01F0F05105
:103CF000D926F151DA22080EDF6E20EE02F0F051E3
:103D0000D926F151DA22380EDE6E040EDD6EF0C0D7
:103D1000D9FFF1C0DAFF480EDF6EF0C0D9FFF1C065
:103D2000DAFF000EDB8E1200E8510401365D00015F
:103D3000E95104013759D8B004D036C4E8F037C48B
:103D4000E9F0EFEC19F0000120EE02F0EA51D9267B
:103D5000EB51DA22380EDE6E040EDD6EEAC0D9FFBA
:103D6000EBC0DAFF480EDF6EEAC0D9FFEBC0DAFF26
:103D7000000EDB8E1200010E0001BD6FB10EBE6F92
:103D8000000EBF6FBE0E9F6F000EA06F29EC14F0E7
:103D9000000E0001C86F070EC86501D02DD0B3C05A
:103DA00060F0616B000E636F020E626FA7EC21F092
:103DB0000001D89060376137D89060376137D8906C
:103DC00060376137C85160256A6F000E61216B6FE3
:103DD000C851010D020EF326000EF422BE0EF3248C
:103DE000D96E000EF420DA6EDF506C6FF1EC25F026
:103DF0000001BD17C82BCFD7B90E606F010E616FE0
:103E0000B10E626F000E636F000E656F0C0E646F73
:103E1000B4EC26F01200000E0101C56F010EC66F52
:103E2000000EC76F000EA06F000E9F6F000EA16FF7
:103E3000000EA26F000EA36F000EA46FA3C1CBF102
:103E4000010EC96F000EC86F800ECA6F93849396DF
:103E50009398220ECF6F540ED06FBE0ED16F540EBA
:103E6000D26F820ED76F540ED86FCD0E0001626FE5
:103E7000010E636F2FEC28F0000E0001A66F000EFC
:103E8000A56FA65115E1080EA55DD8B011D0040E9E
:103E9000A525A36F000EA621A46FA10EA325D96EA0
:103EA000010EA421DA6E000EDF6EA54BA62BE9D71A
:103EB00019EC26F012002D0E0001F86FFEC07AF00A
:103EC000FD0E7A17D8A43BD0FEC07AF0D8907A3392
:103ED0003F0E7A177A51040D000EF324F26F040E90
:103EE000F420F36FF2C0F0F0F3C0F1F0040EF0191B
:103EF000F06FF151F16FF2C0D9FFF3C0DAFFDF309C
:103F0000E8320F0B0D0AD8A417D0300E606F040EE4
:103F1000616F20EE02F0F251D926F351DA22DECFA2
:103F200062F0DDCF63F0000E656F080E646FB4ECD5
:103F300026F0A8EC1FF01200DCEC24F012000001C7
:103F4000FE51FD0B040AD8A41200F2EC1BF0120083
:103F5000000E0001FB6F000EF76F000E0101396FBC
:103F6000000E386F000E3C6F000E0001FA6FEAC0C1
:103F7000D9FFEBC0DAFF7F0EDF16040EEA19EA6FF5
:103F8000EB51EB6FEAC0D9FFEBC0DAFF7F0EDF1613
:103F9000040EEA19EA6FEB51EB6FF0C0D9FFF1C0E4
:103FA000DAFF7F0EDF16000EE76F000EE96F000EDE
:103FB000E86F000E0101036F000E056F000E046F25
:103FC0009DEC18F0000E00016D6F030E6C6F000E7B
:103FD0006E6F000E6F6F000E716F000E706F40EC11
:103FE00025F0BBEC14F012000001656F000E00011B
:103FF000666F040E676F6051616F626BD8906137B6
:1040000062376551636F646BD89063376437D890BB
:10401000633764376151632762516423D8906337F3
:104020006437D890633764376351662764516723D8
:1040300066C0D9FF67C0DAFFDF9E6051D8A407D001
:104040006551020D0E0EF324D96E010E06D0655196
:10405000020DEA0EF324D96E000EF420DA6E66C06B
:10406000DEFF67C0DDFF66C0D9FF67C0DAFFDF9CF7
:1040700020EE04F06651D9266751DA22DF8C120057
:10408000000E0001F66F5C505D10D8B406D05CC025
:10409000D9FF5DC0DAFFDFBE3BD020EE01F05C50FF
:1040A000D9265D50DA226D51DE5CD8B008D020EE02
:1040B00001F05C50D9265D50DA22DF506D6F000EA2
:1040C000F66F13D0F651010D000EF324D96E030ED6
:1040D000F420DA6EF651010DF3506B25E16EF450C9
:1040E0006C21E26EDFCFE7FFF62B6D51F65DD8A0B5
:1040F000E9D7000E606F000E616F030E626F400E15
:10410000636F020E40EC15F060C05CF061C05DF0C2
:104110000001F65112000001605161116211D8A432
:104120000FD063C0D9FF64C0DAFF000EDE6E000E50
:10413000DD6E000E606F000E616F000E626F120088
:1041400062517F0B656F666BD8906537663763C0C9
:10415000D9FF64C0DAFF65C0DEFF66C0DDFF61AF76
:1041600003D0656B652B02D00001656B655163C0A0
:10417000D9FF64C0DAFFDE12000EDD1263C0D9FF82
:1041800064C0DAFF820EDE26FF0EDD2262816283CA
:10419000628562876289628B629D619F60C060F008
:1041A00061C061F062C062F01200000162AF16D01F
:1041B00060C066F061C067F062C068F0661F671F8C
:1041C000681F662B000E67236823000E6625606F4C
:1041D000000E6721616F800E6821626F65AF16D097
:1041E00063C066F064C067F065C068F0661F671F53
:1041F000681F662B000E67236823000E6625636F19
:10420000000E6721646F800E6821656F000E601BD1
:10421000000E611B800E621B000E631B000E641BF0
:10422000800E651B6351605D64516159655162592F
:10423000D8B002D0D8901200D8801200000121EE30
:1042400043F06251D9266351DA22DF50D8B43AD014
:1042500021EE40F06251D9266351DA22DF50646FBB
:104260006451050DF3506225D96EF4506321DA6E66
:1042700060C0E1FF61C0E2FF040EDBCFE3FFE806B0
:10428000FCE221EE43F06251D9266351DA22DF06C7
:1042900021EE40F06251D9266351DA22DF2A21EE65
:1042A00040F06251D9266351DA223F0EDF6408D014
:1042B00021EE40F06251D9266351DA22000EDF6E02
:1042C000010E1200000E1200270E0001636F100E87
:1042D000626F0CD0070E0001606F7D0EE82EFED7D6
:1042E000602FFCD700016207D8A06307C5501F0BE1
:1042F000606F616BC7A402D0010E01D0000E601385
:10430000000E611360516111D8A463BF05D06351E1
:10431000E1E16205D8B0DED763BF07D0635103E1A6
:104320006205D8A002D0010E01D0000E646F645166
:10433000D8A402D001012C8300016451D8B404D068
:104340009E9601012A4B2B2B000164511200000E96
:104350000001656F63AF06D0626D631FD8B0632B39
:10436000010E656F61AF06D0606D611FD8B0612B23
:10437000010E651B000E676F000E666F62516311C0
:10438000D8B41CD0010E646F04D0D8906237633764
:10439000642B63AFFAD7D890663767376251605D98
:1043A00063516159D8A005D06251605F6351615B70
:1043B0006681D89063336233642FEDD76551D8B4EA
:1043C00004D0666D671FD8B0672B66C060F067C009
:1043D00061F01200000E0001686F000E696F000EA0
:1043E0006A6F000E6B6F6451651166116711D8B466
:1043F0002AD0010E6C6F06D0D890643765376637C7
:1044000067376C2B67AFF8D7D890683769376A374A
:104410006B376451605D65516159665162596751EE
:104420006359D8A009D06451605F6551615B6651E2
:10443000625B6751635B6881D8906733663365332D
:1044400064336C2FE1D768C060F069C061F06AC066
:1044500062F06BC063F0120000017B6F000E000180
:104460007D6F070E7C6F7DBF120020EE6DF000EEB9
:1044700061F00B0EDBCFEBFFE806FCE287EC29F0E6
:1044800020EE73F001D818D00500FA6EDE50FD6EF4
:10449000DE50FE6EF850FF6EFA507CC079F07BC0A3
:1044A0007AF00001792B02D0D8907A33792FFCD79B
:1044B00000017A51010B120020EE6DF000EE61F068
:1044C0000B0EDBCFEBFFE806FCE296EC29F00001D7
:1044D0007C07D8A07D07C7D70F0EC16EF28CF28E75
:1044E000E1EC29F00BEC1FF034EC11F0000E0001B0
:1044F000736F010E726F0F0E746F06EC24F00001E3
:10450000D56F000E706F010E6F6F0FEC25F000017C
:10451000D66FD651020DF3CFA3F1A10EAB6F010EF2
:10452000AC6F55EC1CF0CEEC28F0A50E00016A6FC4
:10453000010E6B6F010E6C6FA2C16DF00101A351F2
:1045400029EC07F056EC2AF092EC10F0D3EC11F0C5
:104550001200000E0001716F8E0E706F6BAF11D0E4
:104560006B1F6A1F691F686D000E69236A236B2326
:10457000010E716F06D0D8906B336A33693368339C
:10458000702B000E68156C6F000E69156D6F000EB4
:104590006A156E6FFF0E6B156F6F6C516D116E119A
:1045A0006F11D8A4E8D768C060F069C061F06AC034
:1045B00062F070C063F071C064F0C2EC1DF060C0C6
:1045C00068F061C069F062C06AF01200840EF66E95
:1045D000550EF76E000EF86E02EEECF010EE0AF0DB
:1045E0000900F5CFEEFFE550E150FAE104EE40F0AE
:1045F00012EE88F0EE6AE550E150FCE1E250FAE19B
:1046000003EE00F0800EEE6AE806FDE102EE00F037
:10461000EC0EEE6AE806FDE101EE00F0F80EEE6A3F
:10462000E806FDE100EEE4F01C0EEE6AE806FDE1AE
:104630005E6A5D6A5C6A5F905F92000EF86E0001D0
:1046400075EF04F01C6E000E1E6E070E1D6E1EBE72
:10465000120020EE0EF000EE02F00B0EDBCFEBFFAF
:10466000E806FCE2C3EC29F020EE14F001D816D0E5
:104670000500FA6EDE50FD6EDE50FE6EF850FF6EE5
:10468000FA501DC01AF01CC01BF01A2A02D0D89094
:104690001B321A2EFCD71B50010B120020EE0EF01D
:1046A00000EE02F00B0EDBCFEBFFE806FCE2D2ECF3
:1046B00029F01D06D8A01E06CAD72AD062C0D9FF8D
:1046C00063C0DAFF60C0E1FF61C0E2FFDE50E618C0
:1046D000D8B419D062C0D9FF63C0DAFFDF5000013F
:1046E000666F676B661F671F664B672B60C0D9FFDD
:1046F00061C0DAFFDF50686F68516625606F000E99
:104700006721616F12000001604B612B624B632BCC
:1047100000016407D8A065076429D0E16529D8A401
:10472000CDD7000E616F000E606F1200000E000109
:10473000696F65AF06D0646D651FD8B0652B010E3B
:10474000696F67AF04D0666D671FD8B0672B66517D
:104750006711D8B418D0010E686F04D0D8906637AE
:104760006737682B67AFFAD76651645D6751655943
:10477000D8A004D06651645F6751655BD8906733F9
:104780006633682FF1D76951D8B404D0646D651FC2
:10479000D8B0652B64C064F065C065F0120020EEEF
:1047A00081F000EE61F00B0EDBCFEBFFE806FCE2E0
:1047B0004BEC29F0FF0E000180258D6F8E6BFF0EF4
:1047C0008E238EBF17D020EE81F000EE6DF00B0E21
:1047D000DBCFEBFFE806FCE28D517E25D96E8E51D2
:1047E0007F21DA6EDF502CEC22F000018D07D8A07B
:1047F0008E07E7D720EE81F000EE61F00B0EDBCFE5
:10480000EBFFE806FCE25AEC29F0120072C06CF0F3
:1048100073C06DF0000E00016E6FA1EC27F000096F
:10482000D8B429D000017451F4EC28F00009D8B4B0
:1048300022D0010E78EC28F00009D8B41CD078EC16
:1048400029F00009D8B417D0210E0001756F760E3B
:10485000E82EFED7752FFCD700F072C06FF073C042
:1048600070F00FEC25F000017419D8A402D0010EED
:104870001200000E1200000E1200000E0101EF6F78
:104880004B0EF06F000EF16F000EF26F000EF36F23
:10489000000EF46F080EF56F000E0001F66F1A0E91
:1048A000686F010EFCEC26F01E0E0001686F020E10
:1048B000FCEC26F0000E0001606F000E616F030E2D
:1048C000626F400E636F020E40EC15F060C05CF04A
:1048D00061C05DF0000E01012E6F000E2F6F000E03
:1048E0000001F56F120020EE22F000EE02F00B0E38
:1048F000DBCFEBFFE806FCE2A5EC29F0FF0E21245C
:104900002E6E2F6AFF0E2F222FBE16D020EE22F021
:1049100000EE0EF00B0EDBCFEBFFE806FCE22E50B4
:104920001F24D96E2F502020DA6EDF5022EC23F0A6
:104930002E06D8A02F06E8D720EE22F000EE02F0D7
:104940000B0EDBCFEBFFE806FCE2B4EC29F0120023
:1049500005C0D9FF06C0DAFFDF500B6E0B500C6E9E
:104960000D6A0A500C26000E0ABEFF0E0D220D50D5
:10497000800A0B6E07500C5C800E07BE7F0E0B5832
:10498000D8B005D007500C6E0D6A0CBE0D060C5049
:10499000085C0950800A0B6E0D50800A0B58D8B085
:1049A00004D008C00CF009C00DF005C0D9FF06C046
:1049B000DAFF0CC0DFFF1200020E0001FA19D8A4C2
:1049C00003D097EC13F01200000E0001FA6F010102
:1049D0003C51D8A420D0000120EE01F0F051D9269E
:1049E000F151DA22080EDF6E20EE02F0F051D926E6
:1049F000F151DA22300EDE6E040EDD6EF0C0D9FF0A
:104A0000F1C0DAFF0C0EDF6EF0C0D9FFF1C0DAFFA3
:104A1000000EDB8E1200000E01013C6F12006FC011
:104A20006CF070C06DF0000E00016E6FA1EC27F00D
:104A30000009D8B423D069EC29F00009D8B41ED0FD
:104A40006FC066F070C067F0010E0001686F14EC73
:104A500028F00009D8B412D0BEEC27F00001716F25
:104A6000000E78EC28F00009D8B408D078EC29F0D2
:104A70000009D8B403D0000171511200000E1200D9
:104A800006D03DEC24F012006AEC1DF012006CC060
:104A900072F06DC073F000017351000AD8B404D0F5
:104AA0007F0AD8A4120018D07251010AD8B4E9D7ED
:104AB000030AD8B41200010AD8B4E6D7060AD8B45B
:104AC0001200770AD8B41200010AD8B41200070AFB
:104AD000D8B41200010A12007251FF0A12008E0EA1
:104AE0000001706F06D0D8906B336A336933683336
:104AF000702B000E68156C6F000E69156D6F000E3F
:104B00006A156E6FFF0E6B156F6F6C516D116E1124
:104B10006F11D8A4E8D768C060F069C061F06AC0BE
:104B200062F070C063F0000E646FC2EC1DF060C0F4
:104B300068F061C069F062C06AF01200A2C009F1B9
:104B4000F40E0001846FB20E856F3B0E866F9FC01E
:104B500081F0A0C082F0A1C083F0B6EC17F081C054
:104B600090F082C091F083C092F046EC16F090C0B5
:104B70000AF191C00BF1CD98CD98CD86CD84CD9220
:104B8000000ECF6E000ECE6E9D809E90CD801200E6
:104B900020EE71F001D80AD00500FA6EDE50FD6EED
:104BA000DE50FE6EF850FF6EFA5012000001796F71
:104BB00020EE6DF000EE61F00B0EDBCFEBFFE806B0
:104BC000FCE287EC29F020EE6DF000EE61F00B0EB8
:104BD000DBCFEBFFE806FCE296EC29F0000179510F
:104BE0001200A6846AC0A9FF6CC0A8FFA69EA69C5E
:104BF000000EF2BE010E00016D6FF29E550EA76E03
:104C0000AA0EA76EA6826DB102D0F29E01D0F28EDE
:104C1000A6B2FED7A6946AC068F06BC069F076ECC5
:104C20002AF000016C19D8A402D0010E1200000E67
:104C300012008B0E00017A6F000E7B6F21EECDF01B
:104C400000EE7CF00B0EDBCFEBFFE806FCE268EC3D
:104C500026F00101A051010D3F0EF3240001606F09
:104C6000010EF420616F8B0E626F000E636F000EF9
:104C7000656F180E646FB4EC26F0180E0101A027C2
:104C8000120020EE12F001D80AD00500FA6EDE50B4
:104C9000FD6EDE50FE6EF850FF6EFA5012001A6E76
:104CA00020EE0EF000EE02F00B0EDBCFEBFFE8067D
:104CB000FCE2C3EC29F020EE0EF000EE02F00B0E49
:104CC000DBCFEBFFE806FCE2D2EC29F01A50120031
:104CD000000E00018A6F000E896F8ABF06D08A51CC
:104CE0001CE1180E895DD8B0120020EE7CF000EEB9
:104CF0006DF00B0EDBCFEBFFE806FCE2C8EC25F015
:104D00000001886F89517A25D96E8A517B21DA6E2C
:104D100088C0DFFF894B8A2BE0D712002C0E1B6E58
:104D2000000E1C6E21EECDF000EE1DF00B0EDBCF61
:104D3000EBFFE806FCE2D8EC26F00101A051010DE2
:104D40003F0EF324016E010EF420026E2C0E036E52
:104D5000000E046E000E066E180E056E1EEC27F097
:104D6000180E0101A027120062C068F063C069F04C
:104D700060C066F061C067F011D068C0D9FF69C03B
:104D8000DAFFDF5000016A6F684B692B66C0D9FFFC
:104D900067C0DAFF6AC0DFFF664B672B000164075C
:104DA000D8A065076429E9E16529D8B41200E5D7E0
:104DB000000E2B6E000E2A6E2BBE06D02B501BE170
:104DC000180E2A5CD8B0120020EE1DF000EE0EF096
:104DD0000B0EDBCFEBFFE806FCE241EC26F0296E80
:104DE0002A501B24D96E2B501C20DA6E29C0DFFFFD
:104DF0002A4A2B2AE1D7120000016B6F000168A537
:104E000005D0000E606F6B51F4EC1FF0000168A339
:104E100005D0010E606F6B51F4EC1FF000016B5177
:104E2000010D700EF324696F0F0EF4206A6F69C0D4
:104E3000D9FF6AC0DAFF68C0DFFF120003C009F0C3
:104E400004C00AF001C007F002C008F010D009C089
:104E5000D9FF0AC0DAFFDF500B6E094A0A2A07C0E1
:104E6000D9FF08C0DAFF0BC0DFFF074A082A050692
:104E7000D8A006060528EBE10628D8B41200E7D72B
:104E800070A01DD0F2C0D9FFF3C0DAFF800EDE188B
:104E9000D8A414D0EAC0D9FFEBC0DAFF840EDE1824
:104EA000D8A40CD0F2C0D9FFF3C0DAFF0C0EDF6E2D
:104EB000F2C0D9FFF3C0DAFF000EDB8E7090689A63
:104EC000120000019F51A011A111D8B406D0000E0C
:104ED0009F1B000EA01B800EA11B9CC090F09DC0CC
:104EE00091F09EC092F09FC093F0A0C094F0A1C03A
:104EF00095F0DEEC0CF090C09CF091C09DF092C05B
:104F00009EF012000001616F000E0001636F60519E
:104F1000D8B415D0010E626F03D0D8906037622BE1
:104F200060AFFBD7D89063376051615DD8A003D0E4
:104F30006051615F6381D8906033622FF3D7635112
:104F4000120069EC29F00009D8B416D06CC066F0E4
:104F50006DC067F06EC068F014EC28F00009D8B49A
:104F60000BD000016C51F4EC28F00009D8B404D047
:104F7000010E78EC28F01200000E120064EC21F013
:104F80000009D8B414D0C58664EC21F00009D8B467
:104F90000ED0C9CF66F0010E78EC28F00009D8B425
:104FA00006D001012A4B2B2B000166511200010192
:104FB0002C8D000E1200000E00016B6F69AF06D041
:104FC000686D691FD8B0692B010E6B6F68C060F007
:104FD00069C061F0626B8E0E636F6BC064F0C2ECEF
:104FE0001DF060C068F061C069F062C06AF0120034
:104FF000000E01013D6F000E00016D6F740E6C6FAD
:10500000000E6E6F000E6F6F000E716F000E706FEE
:1050100040EC25F06D92699401D0689468B4FDD796
:10502000000E0101376F120066C069F067C06AF0B8
:10503000070E00016B6F6A356A3369336B2FFBD73C
:105040006951060B6811A009F4EC28F00009D8B4E6
:1050500004D0010E78EC28F01200000E120062C09D
:1050600060F063C061F0C7EC2AF0040E0001622515
:10507000606F000E6321616FC7EC2AF0080E00011B
:105080006225606F000E6321616FC7EC2AF0120089
:10509000698468986D82010E01013D6F000E376FC3
:1050A000000E00016D6F750E6C6F000E6E6F000EBE
:1050B0006F6F000E716F000E706F40EC25F01200E4
:1050C00060C066F061C067F009D066C0D9FF67C0F4
:1050D000DAFF62C0DFFF0001664B672B0001640747
:1050E000D8A065076429F1E16529D8B41200EDD78D
:1050F0000001656F64EC21F00009D8B40CD0000108
:1051000065A102D0C58A01D0C59AC58801012A4B84
:105110002B2B010E120001012C89000E1200000140
:10512000616F080E0001626F000E636FD8906135E9
:105130006335636FD89061376051635DD8A002D04A
:105140006051635F622FF2D76351120000016B6FF1
:1051500000016B51606F616B626B8E0E636F000EAE
:10516000646FC2EC1DF060C068F061C069F062C09D
:105170006AF01200000160516203F3CF64F0F4CFD3
:1051800065F060516303F350652761516203F3508A
:10519000652764C060F065C061F01200AD0E0001CB
:1051A000606F010E616FA10E626F010E636F000EE2
:1051B000656F0C0E646FB4EC26F0000E0101C56F34
:1051C00012000001605161116211D8B406D0000EC6
:1051D000601B000E611B800E621B60C060F061C02E
:1051E00061F062C062F012000001656F64EC21F0B2
:1051F0000009D8B407D065C0C9FF01012A4B2B2B89
:10520000010E120001012C8B000E1200AD0E016E7A
:10521000010E026EA10E036E010E046E000E066EEC
:105220000C0E056E1EEC27F0000E0101C56F12007A
:10523000C0C201F0C1C202F0C2C2C0F2C3C2C1F218
:1052400001C0C2F202C0C3F2010E02010B6F000ED8
:105250000A6F12000001F451D8B404D00201D151F8
:10526000FF0AD16F01013451D8B412000201D351A9
:10527000FF0AD36F1200010E01011827000E192337
:105280001A231B233D51D8A41200372B3751D8A421
:1052900012003769120020EE6BF001D812000500F1
:1052A000FA6EDE50FD6EDE50FE6EF850FF6EFA5064
:1052B000000E120020EE6BF001D812000500FA6E0D
:1052C000DE50FD6EDE50FE6EF850FF6EFA50010E9D
:1052D000120064EC21F00009D8B406D0C5800101A9
:1052E0002A4B2B2B010E120001012C81000E120003
:1052F00064EC21F00009D8B406D0C58401012A4B22
:105300002B2B010E120001012C87000E120020EE43
:1053100063F001D812000500FA6EDE50FD6EDE501B
:10532000FE6EF850FF6EFA50000E120020EE63F091
:1053300001D812000500FA6EDE50FD6EDE50FE6EE2
:10534000F850FF6EFA50010E120020EE0CF001D85A
:1053500012000500FA6EDE50FD6EDE50FE6EF85053
:10536000FF6EFA50000E120020EE0CF001D8120071
:105370000500FA6EDE50FD6EDE50FE6EF850FF6ED8
:10538000FA50010E120020EE04F001D812000500C0
:10539000FA6EDE50FD6EDE50FE6EF850FF6EFA5073
:1053A000000E120020EE04F001D812000500FA6E83
:1053B000DE50FD6EDE50FE6EF850FF6EFA50010EAC
:1053C0001200800E00019F6F1A0EA06F060EA16FD3
:1053D000000EA26F1AEC1EF012005FB28BEF2AF0E3
:1053E0000001606F000160A102D0898612008996D9
:1053F00012005FB284EF2AF00001606F000160A12B
:1054000002D089841200899412005FB292EF2AF0D0
:105410000001606F000160A102D0898812008998A4
:1054200012005FB299EF2AF00001606F000160A1E5
:1054300002D08A8812008A9812005FB2A7EF2AF081
:105440000001606F000160A102D08B8412008B9478
:1054500012005FB2A0EF2AF00001606F000160A1AE
:1054600002D0898A1200899A12005FB2AEEF2AF048
:105470000001606F000160A102D08A8812008A9842
:1054800012005FB2B5EF2AF00001606F000160A169
:1054900002D08A8612008A961200010E0101C56FA1
:1054A000C551D8A4FDD7010EC66F1200D590D58284
:1054B000D584D596D59AD58CF28AD58E12005FB256
:1054C000BCEF2AF081A402D0010E1200000E1200DF
:1054D000CD90000E01010D6F000E0C6F1200000E3A
:1054E0000101C66FC751D8A41200FCD768C0A9FF3C
:1054F000A69EA69CA680A8501200CD90000E010189
:105500000D6F000E0C6F1200016E01A002D0898495
:10551000120089941200016E01A002D08986120047
:1055200089961200016E01A002D089881200899824
:105530001200016E01A002D08A8812008A9812001F
:10554000016E01A002D0898A1200899A1200016EB0
:1055500001A002D08B8412008B941200016E01A076
:1055600002D08A8812008A981200016E01A002D02F
:105570008A8612008A96120081A402D0010E1200BF
:10558000000E12007706B397C6D5F507F7D71200BD
:02559000120007
:020000040020DA
:08000000FFFFFFFFFFFFFFFF00
:020000040030CA
:0E000000240E3F1EFF8381FF0FC00FE00F4054
:00000001FF
