:0400000007EF00F016
:0A0008005F82D5ED0BF082EF13F0DC
:100800000000803F72313FFE753E58633D951D3CB0
:10081000C5AE3A79213994803793A73556153400FF
:10082000000000803FF0FFBEE2A93E8376BEAE2B03
:0B0830003E3CC3BDD2133D78D3BB009B
:10083C000001736F02010151D8B41200006B00016A
:10084C00766B766B7B6B7C6B0A0E646FBA0E7B25BA
:10085C00D96E020E7C21DA6EDF50606F735170EC32
:10086C0017F030EC18F06C6F6C51F20FD96EDA6A2D
:10087C00BC0E7B25E16E020E7C21E26EDFCFE7FF22
:10088C007B4B7C2B7CBFE0D77C5103E1020E7B5D64
:10089C00DBE36A5104E00201C951080BBD130001EE
:1008AC006B5104E00201C851080BBC1300017D6BB5
:1008BC007E6BBE0E7D25D96E020E7E21DA6E090E80
:1008CC00646F7D516825E16E7E516921E26EE750BF
:1008DC0030EC18F0DF6E7D4B7E2B7EBFEAD77E515D
:1008EC0003E1080E7D5DE5E3776B786B796B7A6BD2
:1008FC0076510201B825D96E000EB921DA6EBC0E04
:10090C0000017925E16E020E7A21E26EE7500201B8
:10091C00C715DF6E0001762B794B7A2B7ABFE8D79F
:10092C007A5103E1020E795DE3E37F6B806B746BAC
:10093C00816B826B756B81296C6F000E82216D6FE0
:10094C00090E6C03F3CF6EF0F4CF6FF06D03F35020
:10095C006F277F516825D96E80516921DA6EDF507F
:10096C00706F716B6E51705D7151800A726F6F5147
:10097C00800A725902E3010E2FD07F516825D96E7F
:10098C0080516921DA6EDF506C6F6D6B090E81033B
:10099C00F3CF6EF0F4CF6FF08203F3506F276C51EE
:1009AC006E5D6F51800A706F6D51800A705915E23F
:1009BC00BE0E7F25D96E020E8021DA6EDF506C6F71
:1009CC006D6B6C51775D7851800A6E6F6D51800A3A
:1009DC006E59010ED8B0000E756F81C06CF075C0E9
:1009EC006DF06C2B02D0D8906D376C2FFCD70001BA
:1009FC006D517413814B822B82BF9CD7825103E1C2
:100A0C00070E815D97E376510201B825D96E000E71
:100A1C00B921DA6E74C0DFFF0001762B7F4B802B7F
:100A2C0080BF85D7805103E1080E7F5D80E3774B53
:100A3C00782B78BF5BD7785104E1090E775D01E222
:100A4C0055D7010E0201006F016B1200076E07A053
:100A5C008FD021EE41F00150D9260250DA22DF501E
:100A6C00050DF3500124D96EF4500220DA6E0750B4
:100A7C00F00BDF6E21EE41F00150D9260250DA2244
:100A8C00DF50050D01C003F002C004F0F350032643
:100A9C00F45004220328D96E000E0420DA6E07509D
:100AAC000F0BDF6E49D021EE41F00150D9260250D8
:100ABC00DA22DF50050D01C003F002C004F0F35040
:100ACC000326F4500422040E0324D96E000E0420D5
:100ADC00DA6E020E17D021EE41F00150D9260250E9
:100AEC00DA22DF50050D01C003F002C004F0F35010
:100AFC000326F4500422040E0324D96E000E0420A5
:100B0C00DA6E010EDF6E2CD021EE41F00150D926A9
:100B1C000250DA22DF50050D01C003F002C004F0D0
:100B2C00F3500326F4500422040E0324D96E000E55
:100B3C000420DA6EDF68FF0C21EE41F00150D9265B
:100B4C000250DA22DF50050DF3500124D96EF45017
:100B5C000220DA6EDF50B00AA6E0700ABCE0D4D7EF
:100B6C0021EE42F00150D9260250DA22DF6A29D058
:100B7C0021EE41F00150D9260250DA22DF50050D4A
:100B8C0001C003F002C004F0F3500326F450042219
:100B9C0021EE42F00150D9260250DA22DF50032612
:100BAC00000E0422020E0324D96E000E0420DA6E0D
:100BBC0007C0DFFF21EE42F00150D9260250DA22A5
:100BCC00DF2A21EE41F00150D9260250DA22DF5003
:100BDC00050D01C003F002C004F0F3500326F450DD
:100BEC000422040E0324D96E000E0420DA6EDF50AA
:100BFC00056E066A05BE060621EE42F00150D926A6
:100C0C000250DA22DF5005180610D8A4120021EE8B
:100C1C0043F00150D9260250DA22410EDF60410C1C
:100C2C008A8821EE43F00150D9260250DA22DF2ABD
:100C3C0021EE41F00150D9260250DA22DF2A21EEB2
:100C4C0041F00150D9260250DA223F0EDF643F0CEE
:100C5C0021EE41F00150D9260250DA22DF6A000C55
:100C6C0028EC19F0BBEC13F0D76B6EC1D6F0010E6B
:100C7C000101866F8651FEE16EC1D8F00001D6519C
:100C8C00D8192FE133D020EC19F00001DF5110E01E
:100C9C0021EE6EF000EEACF00B0EDBCFEBFFE806B6
:100CAC00FCE20CEC13F0E06BDF6B0201C76933D094
:100CBC00010ED76F9E6B9F6B400EA06FA16BF7EC74
:100CCC0015F029D0D76BDF5126E1595024E120ECE7
:100CDC0019F01BEC19F064517EEC11F0C0EC18F01B
:100CEC001AD0D851D0E0010AEDE015D0D75113E05D
:100CFC00595011E0DF510FE120EC19F0010E000109
:100D0C00DF6F9A0E9E6F990E9F6F3E0EA06F010EB5
:100D1C00A16FF7EC15F0DA0E0001606F1D0E616F1C
:100D2C00040E626FCEEC12F000092EE01BEC19F0F1
:100D3C0023D0DC517EEC11F025D0D890DD31D96F69
:100D4C000FD0D9C06AF11ED0D9C066F11BD0D9C062
:100D5C0067F118D0D9C068F115D0D9C069F112D09B
:100D6C00DC51070AEEE04C0AEFE0070AF0E0010A5A
:100D7C00F1E0030AF2E006D00001DA51B00ADDE03E
:100D8C00700AD7E0C0EC18F0720E0001606F010E13
:100D9C00616F7E0E626F010E636F656B080E646F80
:100DAC0051EC15F060C0D2F061C0D3F0E0511AE103
:100DBC00D251D31104E101017B516F1913E020ECE6
:100DCC0019F0010E0001E06F080E0201C96F9A0EB6
:100DDC0000019E6F990E9F6F3E0EA06F010EA16FCA
:100DEC00F7EC15F001016F5103E170C1D4F002D0A2
:100DFC0071C1D4F00001D56B720E686F010E696F72
:100E0C00010170518C19010ED8A4000E00016A6FFB
:100E1C006FC16BF0D4511EEC04F00001E151E25DA6
:100E2C0012E3720E846F010E856F080E866F20EE32
:100E3C00E3F000EE87F00E0EDBCFEBFFE806FCE2F2
:100E4C002BEC14F0E26BD8C0D6F011D7AC51AD112D
:100E5C00AE1106E1AC6B800EAD6F3F0EAE6F3F0C6A
:100E6C00720E606F310E616F440E626FACC063F036
:100E7C00ADC064F0AEC065F025EC15F005E2AC69D0
:100E8C007F0EAD6FAE6F7F0CACC060F0ADC061F08B
:100E9C00AEC062F0490E636F3A0E646FC40E656F9C
:100EAC0025EC15F004E2AC6BAD6BAE6B1200010ED1
:100EBC00AEAF000EB46FB4510EE0ACC060F0ADC07C
:100ECC0061F0AEC062F094EC18F060C0ACF061C0A0
:100EDC00ADF062C0AEF0ACC072F0ADC073F0AEC09D
:100EEC0074F0AA0E756FB80E766F3F0E776F4CECE0
:100EFC000DF072C0ACF073C0ADF074C0AEF0ACC00D
:100F0C009EF0ADC09FF0AEC0A0F020EC0EF09EC0E5
:100F1C00AFF09FC0B0F0A0C0B1F0AFC08FF0B0C0C8
:100F2C0090F0B1C091F0EBEC0EF08FC0B2F090C02D
:100F3C00B3F0ACC09BF0ADC09CF0AEC09DF0B2C0A5
:100F4C0068F0B3C069F0A6EC17F068C09EF069C0F9
:100F5C009FF06AC0A0F08BEC17F09BC0ACF09CC06B
:100F6C00ADF09DC0AEF0ACC09BF0ADC09CF0AEC07F
:100F7C009DF0010E9E6FA06B090E9F6F52EC10F04E
:100F8C009BC0A5F09CC0A6F09DC0A7F0B2C0A8F075
:100F9C00B3C0A9F0EBEC10F0A5C0ACF0A6C0ADF05E
:100FAC00A7C0AEF0B45120E0AC290AE17F0EAD1918
:100FBC0007E17F0EAE1904E1AC6BAD6BAE6B1200AA
:100FCC00806B800E816F3F0E826FACC083F0ADC022
:100FDC0084F0AEC085F048EC0FF080C0ACF081C05E
:100FEC00ADF082C0AEF01200ACC0ACF0ADC0ADF054
:100FFC00AEC0AEF01200046E300E0424D96EDA6A64
:10100C00010EDA22000E0424E16EE26A010EE222E5
:10101C00DE50E61825E1300E0124D96EDA6A010E95
:10102C00DA22000E0424E16EE26A010EE222DE50A6
:10103C00E61816E1300E0124D96EDA6A010EDA22B6
:10104C00000E0124E16EE26A010EE222E75003E198
:10105C00036A032A01D0036ADE500318D8B4010CCA
:10106C00300E0124D96EDA6A010EDA22000E012448
:10107C00E16EE26A010EE222DE50E61825E1000E76
:10108C000424D96EDA6A010EDA22000E0124E16E14
:10109C00E26A010EE222DE50E61816E1000E01248F
:1010AC00D96EDA6A010EDA22300E0424E16EE26A9D
:1010BC00010EE222E75003E1036A032A01D0036A1E
:1010CC00DE50031801E1010C300E0124D96EDA6AEE
:1010DC00010EDA22000E0124E16EE26A010EE22218
:1010EC00DE50E61825E1300E0424D96EDA6A010EC2
:1010FC00DA22000E0124E16EE26A010EE222DE50D9
:10110C00E61816E1300E0424D96EDA6A010EDA22E2
:10111C00000E0424E16EE26A010EE222E75003E1C4
:10112C00036A032A01D0036ADE500318D8B4FF0CFB
:10113C00300E0424D96EDA6A010EDA22000E042471
:10114C00E16EE26A010EE222DE50E61825E1000EA5
:10115C000124D96EDA6A010EDA22000E0424E16E43
:10116C00E26A010EE222DE50E61816E1000E0424BB
:10117C00D96EDA6A010EDA22300E0124E16EE26ACF
:10118C00010EE222E75003E1036A032A01D0036A4D
:10119C00DE50031801E1FF0C000C91C095F0966B2A
:1011AC00976B9035953701E3968195519A6F94C062
:1011BC0095F0966B976B9335953701E39681955126
:1011CC00996F9A5109E099519A5D0DE29A51995D86
:1011DC00956F180E956507D092C08FF093C090F064
:1011EC0094C091F01200995109E09A51995D0DE269
:1011FC0099519A5D956F180E956507D08FC08FF039
:10120C0090C090F091C091F01200060E986F91BFB3
:10121C00988F94BF988D908F916B938F946B9951FD
:10122C009A5D18E2D89092379337943799079A5170
:10123C0099190CE0980798C095F0070E951706E0E1
:10124C00F1D7D890913390338F339A2B99519A19B7
:10125C001BE0F7D79A51995D17E2D8908F379037EA
:10126C0091379A079A5199190CE0980798C095F004
:10127C00070E951706E0F1D7D89094339333923339
:10128C00992B99519A19F8E198AF07D08F1F901F9D
:10129C00911F8F2B000E9023912398AD07D0921F96
:1012AC00931F941F922B000E93239423986B8F51B2
:1012BC009227905193239151942394AF09D0921F6C
:1012CC00931F941F922B000E93239423010E986F5F
:1012DC0092C060F093C061F094C062F09AC063F069
:1012EC0098C064F0C3EC11F060C08FF061C090F056
:1012FC0062C091F01200C16BB551B611B7110FE17C
:10130C00606B616B626BB8C063F0B9C064F0BAC05B
:10131C0065F025EC15F0B56BB66BB76B1200B851D8
:10132C00B911BA1106E1B56B800EB66F3F0EB76FEF
:10133C003F0CB7AF38D0B8C08FF0B9C090F0BAC07E
:10134C0091F0EBEC0EF08FC0C2F090C0C3F091C0E6
:10135C00C4F092C0C5F0C2C068F0C3C069F0C4C08C
:10136C006AF0C5C06BF045EC16F0B851681906E18F
:10137C00B951691903E1BA516A1904E0B56BB66B3E
:10138C00B76B1200C251010BC16FB5C060F0B6C093
:10139C0061F0B7C062F094EC18F060C0B5F061C0B9
:1013AC00B6F062C0B7F0B5C0A5F0B6C0A6F0B7C035
:1013BC00A7F062EC0CF0A5C0BBF0A6C0BCF0A7C0B7
:1013CC00BDF0BBC072F0BCC073F0BDC074F0B8C04F
:1013DC0075F0B9C076F0BAC077F04CEC0DF072C075
:1013EC00BEF073C0BFF074C0C0F0BEC0ACF0BFC0E4
:1013FC00ADF0C0C0AEF02CEC07F0ACC0B5F0ADC099
:10140C00B6F0AEC0B7F0C1510FE0B5C060F0B6C0D9
:10141C0061F0B7C062F094EC18F060C0B5F061C038
:10142C00B6F062C0B7F01200B5C0B5F0B6C0B6F0F9
:10143C00B7C0B7F01200000ED5B0010ED5B202093C
:10144C00D5B404090001D06FD05144EC18F068C039
:10145C00B8F069C0B9F06AC0BAF0B56BB66B400EA3
:10146C00B76F81EC09F0B5C0CDF0B6C0CEF0B7C007
:10147C00CFF0756B800E766F450E776FCDC072F026
:10148C00CEC073F0CFC074F04CEC0DF072C08FF086
:10149C0073C090F074C091F0EBEC0EF08FC0C6F0FE
:1014AC0090C0C7F091C0C8F092C0C9F0756B800EA7
:1014BC00766F3F0E776FC6C068F0C7C069F0C8C0C2
:1014CC006AF0C9C06BF093EC14F068C072F069C09C
:1014DC0073F06AC074F04CEC0DF072C080F073C005
:1014EC0081F074C082F0970E836F980E846F4B0E50
:1014FC00856F48EC0FF080C0CAF081C0CBF082C081
:10150C00CCF0929492969298CAC083F0CBC084F09F
:10151C00CCC085F0806B816B3E0E826F48EC0FF077
:10152C0080C08FF081C090F082C091F0EBEC0EF097
:10153C008F51E16FE26B890EE36F0F0EE46F040EB7
:10154C00E56F890EE86F0F0EE96F020EEA6F890ED8
:10155C00ED6F0F0EEE6F030EEF6FE30E646F656BA6
:10156C0006EF18F0929A949493988A0E0201CA6F1F
:10157C000F0ECB6F040ECC6F890ECF6F0F0ED06F8A
:10158C00050ED16F8B0ED46F0F0ED56F020ED66F6A
:10159C00CA0E0001646F020E656F06EC18F00201B2
:1015AC00C769C66B010E016F006B020EB66F020E9F
:1015BC00B76F5C0EB86F020EB96F0001CC6BCD6BC0
:1015CC00CC510201B625D96E0001CD510201B721D3
:1015DC00DA6EDF6A0001CC510201B825D96E000128
:1015EC00CD510201B921DA6E000EDF6E0001CC4B39
:1015FC00CD2BCDBFE5D7CD5103E15A0ECC5DE0E349
:10160C00CE6BCF6BCE510108686FCF51D8A0E82AB2
:10161C000008696FA6EC17F068C0C6F069C0C7F087
:10162C006AC0C8F0C6C0B8F0C7C0B9F0C8C0BAF03C
:10163C00B56B200EB66F410EB76F81EC09F0B5C0DB
:10164C00C9F0B6C0CAF0B7C0CBF0BA0ECE25D96E71
:10165C00020ECF21DA6EC9C08FF0CAC090F0CBC099
:10166C0091F0EBEC0EF0D8908F35DF6ECE4BCF2B8C
:10167C00CFBFC8D7CF5105E1020ECE5DD8B0120056
:10168C00C1D712001D0E606F040E616FFDEC0FF0E0
:10169C00D90E606F020E616FFDEC0FF09E9A9F9A4F
:1016AC009D8AF28C120E716F7A0E726F736B746B63
:1016BC00606B6C0E616FDC0E626F020E636F71C03B
:1016CC006DF072C06EF073C06FF074C070F0060EE7
:1016DC00D8906D376E376F377037E82EF9D76DC0ED
:1016EC0064F06EC065F06FC066F070C067F047ECD8
:1016FC0013F0FF0E6025756FFF0E6121766FFF0EE4
:10170C006221776FFF0E6321786F78BF33D07851E9
:10171C00771102E176052EE3606B6C0E616FDC0EC7
:10172C00626F020E636F71C06DF072C06EF073C0A9
:10173C006FF074C070F0040ED8906D376E376F3741
:10174C007037E82EF9D76DC064F06EC065F06FC0CD
:10175C0066F070C067F047EC13F0FF0E6025756FF4
:10176C00FF0E6121766FFF0E6221776FFF0E6321F2
:10177C00786FAC8478BF07D07851771176110EE171
:10178C007529D8B0120075C0AFFF948E948CAC98AC
:10179C009D8AAB8EAB88AB9CAC8AAC9C12000600CD
:1017AC00E9CF50F0EACF51F0E1CF52F0E2CF53F055
:1017BC00D9CF54F0DACF55F0F3CF56F0F4CF57F031
:1017CC00F2A431D0F2940201C6510A0DF350B625A1
:1017DC00256EF450B721266E0A0E276E22EECAF043
:1017EC0000EE28F00E0EDBCFEBFFE806FCE25FEC20
:1017FC0014F00201C62B080EC66505D0005102E09C
:10180C0067EC18F0C66B0101875104E086EC0EF012
:10181C00886B02D0010E886F865102E077EC18F0CD
:10182C000001E22B37D09EA019D09E905D4A5E2A13
:10183C005B505D5C5E50800A4F6E5C50800A4F5866
:10184C0029E35D6A5E6A010E596EA1EC18F05A50DC
:10185C0002E0596A1FD024EC19F01CD09EAA1AD0B1
:10186C008A9816D0AECF58F0ABB402D0ABA209D048
:10187C001D0E016E040E026EA5EC0FF0AB98AB883A
:10188C0007D01D0E016E040E026E58502CEC05F0A4
:10189C009EBAE8D757C0F4FF56C0F3FF55C0DAFF25
:1018AC0054C0D9FF53C0E2FF52C0E1FF51C0EAFF60
:1018BC0050C0E9FF5F921100A7AF04D0A56BA66BD7
:1018CC00A76B1200A551A611A71104E1A56BA66B7D
:1018DC00A76B1200756B766B400E776FA80E636F5B
:1018EC00A5C060F0A6C061F0A7C062F0F3EC13F0E5
:1018FC0060C072F061C073F062C074F04CEC0DF01B
:10190C0072C08FF073C090F074C091F0926B800E27
:10191C00936FBF0E946FD3EC08F08FC0A5F090C0FE
:10192C00A6F091C0A7F0A807D8A0A907A5C09BF066
:10193C00A6C09CF0A7C09DF01F0E9E6FA06B080E5A
:10194C009F6F52EC10F09BC0A5F09CC0A6F09DC000
:10195C00A7F0720E756F310E766F3F0E776FA8C0C1
:10196C0068F0A9C069F0A6EC17F068C072F069C005
:10197C0073F06AC074F04CEC0DF072C08FF073C051
:10198C0090F074C091F0A5C092F0A6C093F0A7C0DF
:10199C0094F0D3EC08F08FC0A5F090C0A6F091C0E5
:1019AC00A7F012009E51020FA46FA66BA76BA45157
:1019BC00A625D96EDA6A000EDF6EA64BA72BA751AF
:1019CC0003E1080EA65DF3E3A86BA96BAA6BAB6BE6
:1019DC00A851060DF350AA25A56FA5C09FF0070EC0
:1019EC009F17AAC0A0F09E51D96EDA6ADECFA1F083
:1019FC00DDCFA2F0A851A127A951A223040EA12545
:101A0C00D96E000EA221DA6EDF50A36FA02B02D08C
:101A1C00D890A333A02FFCD7010E0001A3179F2B46
:101A2C0002D0D890A3379F2FFCD70001836B846B17
:101A3C00410E856FA55144EC18F068C080F069C068
:101A4C0081F06AC082F048EC0FF080C08FF081C04A
:101A5C0090F082C091F0EBEC0EF0A4518F25D96E72
:101A6C00DA6AA351DF12AA4BAB2BABBFB1D7AB5188
:101A7C0003E1060EAA5DACE3A84BA92BA95105E125
:101A8C00080EA85DD8B01200A1D7120074C078F06F
:101A9C00796B7A6B7335783701E3798178517B6F89
:101AAC007B5104E1726B736B746B120077C078F02E
:101ABC00796B7A6B7635783701E3798178517C6F65
:101ACC007C5104E1726B736B746B12007C517B0F55
:101ADC007B2774C07CF077517C1B800E7C17738F36
:101AEC00768F776B746B72517503F4CFF3FFF46AD6
:101AFC00F3CF7DF0F4CF7EF07F6B72517603F35011
:101B0C007D27F4507E23000E7F2373517503F35011
:101B1C007D27F4507E23000E7F2373517603F35000
:101B2C007E27F4507F237FAF05D0D8907F337E3350
:101B3C007D337B2BD8907F337E337D337DC060F03B
:101B4C007EC061F07FC062F07BC063F07CC064F04B
:101B5C00C3EC11F060C072F061C073F062C074F03D
:101B6C001200A46BA56BA26BA66BA76BA451060D00
:101B7C00F350A625A36FA6C09FF0A3C0A0F0070E3C
:101B8C00A017836B846B410E856FA35144EC18F046
:101B9C0068C080F069C081F06AC082F048EC0FF038
:101BAC0080C08FF081C090F082C091F0EBEC0EF011
:101BBC009E518F25D96EDA6A020ED926DF50A16F9D
:101BCC00A02B02D0D890A133A02FFCD7010E00017E
:101BDC00A1179F2B02D0D890A1379F2FFCD70001C3
:101BEC00A151A213A64BA72BA7BFC0D7A75103E1A6
:101BFC00060EA65DBBE39E51D96EDA6ADECF9FF06E
:101C0C00DDCFA0F0A4519F27A551A023040E9F2542
:101C1C00D96E000EA021DA6EA2C0DFFFA44BA52B5B
:101C2C00A5BFA1D7A55105E1080EA45DD8B012003F
:101C3C009AD712009EC060F09FC061F0A0C062F005
:101C4C00A40E636FF3EC13F0A5AF0CD0A0AF06D0CD
:101C5C009E6B800E9F6FBF0EA06FBF0C9E6B9F6B19
:101C6C00A06B1200A55103E1150EA45D07E39EC005
:101C7C009EF09FC09FF0A0C0A0F012009EC08FF0FD
:101C8C009FC090F0A0C091F0EBEC0EF08FC068F00C
:101C9C0090C069F091C06AF092C06BF093EC14F0B4
:101CAC0068C0A1F069C0A2F06AC0A3F09EC060F049
:101CBC009FC061F0A0C062F0A1C063F0A2C064F04C
:101CCC00A3C065F025EC15F014E2A1C08FF0A2C002
:101CDC0090F0A3C091F0926B800E936FBF0E946F37
:101CEC00D3EC08F08FC09EF090C09FF091C0A0F094
:101CFC001200A1C09EF0A2C09FF0A3C0A0F01200E1
:101D0C00615123E1300E016E010E026E000E036E66
:101D1C00010E046E066A300E056ED1EC16F021EE43
:101D2C008EF000EE01F00E0EDBCFEBFFE806FCE2CE
:101D3C00FAEC18F021EE8EF000EE01F00E0EDBCF77
:101D4C00EBFFE806FCE201EC19F0300E01016161D9
:101D5C0002D051EF17F0606B02C162F1640E056E98
:101D6C00010E066E076A89C108F08AC109F0010EDE
:101D7C00016E000E01EC08F00A6EC6EC14F04D6A10
:101D8C004E6A660E4D24056E010E4E20066E076AD5
:101D9C00096A3F0E086E4D50030DF350040F016E8F
:101DAC004D50030DF350030F01EC08F00A6EC6EC16
:101DBC0014F04D4A4E2A4E5003E1080E4D5CE1E3FF
:101DCC000101616B010E606F010C91C093F0946B7B
:101DDC00956B9035933701E3948193519D6F9D5191
:101DEC0005E18F6B906B916B926B1200170E936FDA
:101DFC008FC094F090C095F091C096F09329976F96
:101E0C0004D0D890963395339433972FFAD700019A
:101E1C009451986F908F916B8F51996F90519A6FDD
:101E2C0091519B6F9C6B8E0E9D5F9DAF0CD09D5105
:101E3C00800A8F0FD6E3D8909C339B339A33993317
:101E4C009D3FF9D70CD0170E9D6507D0CAD7D890F7
:101E5C0099379A379B379C379D079D51F8E19851DC
:101E6C0008E09C1F9B1F9A1F996D000E9A239B23C1
:101E7C009C2399C08FF09AC090F09BC091F09CC0AD
:101E8C0092F0120082C086F0876B886B81358637A2
:101E9C0001E3878186518D6F8D5104E1806B816BDD
:101EAC00826B120085C086F0876B886B8435863711
:101EBC0001E3878186518E6F8E5104E1806B816BBB
:101ECC00826B12008A6B8B6B8C6B8E51890F8D5FC2
:101EDC0082C08EF085518E1B800E8E17818F826B87
:101EEC00848F856B180E896FD8908A378B378C3717
:101EFC008351805D845181598551825907E3835107
:101F0C00805F8451815B8551825B8A81D890803758
:101F1C0081378237892FE8D78AC060F08BC061F097
:101F2C008CC062F08DC063F08EC064F0C3EC11F015
:101F3C0060C080F061C081F062C082F0120021EEBE
:101F4C0040F00150D9260250DA22DF6A21EE41F02E
:101F5C000150D9260250DA22DF6A21EE42F00150FC
:101F6C00D9260250DA22DF6A21EE43F00150D9263D
:101F7C000250DA22DF6A066A3F0E066401D03F0C7B
:101F8C000650050DF3500124D96EF4500220DA6E80
:101F9C00DF6A0650050D01C003F002C004F0F350D7
:101FAC000326F45004220328D96E000E0420DA6EA6
:101FBC00DF6A056A010E056401D017D00650050DC5
:101FCC0001C003F002C004F0F3500326F4500422C5
:101FDC0005500326000E0422020E0324D96E000EB7
:101FEC000420DA6EDF6A052AE5D7062AC5D721EE6A
:101FFC0040F06051D9266151DA22DF6A21EE41F0BE
:10200C006051D9266151DA22DF6A21EE42F060512B
:10201C00D9266151DA22DF6A21EE43F06051D926CC
:10202C006151DA22DF6A656B6551050DF35060254D
:10203C00D96EF4506121DA6EDF6A6551050D60C00E
:10204C0062F061C063F0F3506227F450632362299D
:10205C00D96E000E6321DA6EDF6A646B6551050D73
:10206C0060C062F061C063F0F3506227F4506323E8
:10207C0064516227000E6323020E6225D96E000E96
:10208C006321DA6EDF6A642B010E6465E7D7652B7A
:10209C003F0E6565C9D73F0C9F51030D9E51F3242C
:1020AC00A16FA1C0F6FF080EF76E0900F5CFA2F0E4
:1020BC000900F5CFA3F00A00F5CFA4F031D0A2C0EF
:1020CC0075F0A3C076F0A4C077F09BC072F09CC0F2
:1020DC0073F09DC074F04CEC0DF072C08FF073C0B7
:1020EC0090F074C091F09F07D8A0A0079F51030DEA
:1020FC009E51F324A16FA1C0F6FF080EF76E0900E4
:10210C00F5CF92F00900F5CF93F00A00F5CF94F0DB
:10211C00D3EC08F08FC0A2F090C0A3F091C0A4F053
:10212C009F51A011CCE1A2C09BF0A3C09CF0A4C015
:10213C009DF0120020EE02F0A851D926A951DA2206
:10214C00DF50B86FA8C0AEF0A9C0AFF0B96BB9C082
:10215C00AAF0020EAA27AA51AE0FD96EDA6AD8904D
:10216C00B831AB6FAC6BD890AB37AC37D890AB37D2
:10217C00AC37D890AB37AC37B951AB25716F000E7B
:10218C00AC21726F1EEC16F0DF6E0001B92B070E3E
:10219C00B965DDD7AE0E9E6FB7EC0DF020EE02F0F8
:1021AC00A851D926A951DA22B8C0DFFFB8C08CF1EA
:1021BC007A0E606F010E616FA8C062F0A9C063F067
:1021CC00656B0C0E646FB0EF16F0A551A611A7113C
:1021DC0004E1A56BA66BA76B1200A7517F0BAA6F2E
:1021EC00AB6BD890AA37AB37AA51A827AB51A92310
:1021FC00010EA6AF000EA827000EA923A9AF04D08C
:10220C00A56BA66BA76B1200A9BF0ED0A9050CE39A
:10221C00A7AF05D0A5697F0EA66FA769FF0CA569AE
:10222C007F0EA66FA76F7F0CA935A931AB6FA831B4
:10223C00AA6FA719800BAA19A76FA8C0AAF0010E44
:10224C00AA17AA33AA33A651AA197F0BAA19A66FEB
:10225C00A5C0A5F0A6C0A6F0A7C0A7F01200938059
:10226C009382C76A280EC66E756B800E766F400E11
:10227C00776F9EC068F09FC069F0A0C06AF0A1C0E3
:10228C006BF093EC14F068C072F069C073F06AC024
:10229C0074F04CEC0DF072C083F073C084F074C019
:1022AC0085F0970E806F980E816F4B0E826F48EC05
:1022BC000FF080C08FF081C090F082C091F0926BD3
:1022CC00800E936FBF0E946FD3EC08F08FC0A2F00A
:1022DC0090C0A3F091C0A4F0A2C08FF0A3C090F066
:1022EC00A4C091F0EBEC0EF08F51C86EC56A1200D1
:1022FC000001C66FC6C064F1620EA86F010EA96F13
:10230C00A0EC10F057EC18F00001D890C631010188
:10231C009D6FBA0E0001606F616B9D0E626F010EB6
:10232C00636F656B0C0E646FB0EC16F0C76BC86B0B
:10233C00C7C062F0C8C063F0BA0E646F32EC17F01D
:10234C000001C74BC82BC85103E10C0EC75DF0E36D
:10235C00C96BCA6BC80EC925D96E020ECA21DA6EBA
:10236C00080EDF6EC94BCA2BCABFF4D7CA5103E1A2
:10237C00020EC95DEFE3E06B1200635104E06051A3
:10238C006111621109E1606B616B626B1200632B6E
:10239C00D890623361336033656B666BFE0E6215E9
:1023AC00676F6551661167110AE0F1D7632B602BDB
:1023BC00000E61236223D890623361336033656B06
:1023CC00666B6251676F65516611671106E0EED757
:1023DC006307D89060376137623761BF03D0020E54
:1023EC006361F6D763A1619FD89063336351621325
:1023FC00645101E0628F60C060F061C061F062C046
:10240C0062F01200816F0001836B070E826F20EE69
:10241C006FF000EE60F00E0EDBCFEBFFE806FCE297
:10242C00C8EC18F076C07EF082C07FF081C080F0DE
:10243C007F2B02D0D89080337F2FFCD7010E000168
:10244C0080177E2B02D0D89080377E2FFCD774C09B
:10245C00D9FF75C0DAFFDF5000017715801174C009
:10246C00D9FF75C0DAFFDF6E20EE6FF000EE60F082
:10247C000E0EDBCFEBFFE806FCE2F3EC18F0820764
:10248C00D8A0830783BF1200C2D70101866B010E4F
:10249C00876F886B616B606B626B636B646B656B76
:1024AC0064C18CF1010E8A6F896B800E8B6F9384E3
:1024BC00939693988A0E8E6F0F0E8F6F040E906FFB
:1024CC00810E936F0F0E946F020E956F8A0E986F9C
:1024DC000F0E996F030E9A6F8E0E0001646F010E32
:1024EC00656F06EC18F0AC6BAD6B660EAC25D96E57
:1024FC00010EAD21DA6E000EDF6EAC4BAD2BAD5183
:10250C0002E08FEF16F0080EAC5DEFE38FEF16F0E4
:10251C00226E246A070E236E20EE10F000EE01F0FE
:10252C000E0EDBCFEBFFE806FCE208EC19F017C04F
:10253C001FF023C020F022C021F0202A02D0D89016
:10254C002132202EFCD7010E21161F2A02D0D89042
:10255C0021361F2EFCD715C0D9FF16C0DAFFDF506D
:10256C001814211015C0D9FF16C0DAFFDF6E20EE4B
:10257C0010F000EE01F00E0EDBCFEBFFE806FCE2F4
:10258C000FEC19F02306D8A0240624BE1200C4D7E1
:10259C0021EE43F06151D9266251DA22DF5035E049
:1025AC0021EE40F06151D9266251DA22DF50050D3F
:1025BC00F3506125D96EF4506221DA6E6051E16EF0
:1025CC00E26A040EDBCFE3FFE806FCE221EE43F007
:1025DC006151D9266251DA22DF0621EE40F06151B9
:1025EC00D9266251DA22DF2A21EE40F06151D92638
:1025FC006251DA223F0EDF64010C21EE40F0615192
:10260C00D9266251DA22DF6A010C000C010EBB6F75
:10261C00AC0EBC6FBD6BBC0E9E6FD8EC0CF0C66BD9
:10262C00D890AE31B86FB96BD890B837B937D8905D
:10263C00B837B937D890B837B937C651B825746F91
:10264C00000EB921756FC6C0BAF0020EBA27BA5186
:10265C00BC0FD96EDA6ADF50766F6BEC16F00001A6
:10266C00BB17C62B070EC665DBD77A0E606F010E43
:10267C00616FAC0E626F636B656B0C0E646FB0EFC9
:10268C0016F0686B696B6A6B6B6B64516511661144
:10269C00671129E0010E6C6F06D0D890643765374E
:1026AC00663767376C2B67AFF8D7D89068376937C0
:1026BC006A376B376451605D655161596651625977
:1026CC006751635909E36451605F6551615B665101
:1026DC00625B6751635B6881D8906733663365339F
:1026EC0064336C2FE2D768C060F069C061F06AC0D7
:1026FC0062F06BC063F012002C0EF66E320EF76EA9
:10270C00000EF86E00EEF2F010EE0AF00900F5CFB4
:10271C00EEFFE550E150FAE102EED9F012EE88F04E
:10272C00EE6AE550E150FCE1E250FAE102EE00F015
:10273C00D90EEE6AE806FDE101EE00F0A90EEE6A94
:10274C00E806FDE100EEDFF0130EEE6AE806FDE1AF
:10275C005E6A5D6A5C6A5B6A5A6A596A5F905F92EC
:10276C00000EF86E000136EF06F00F0EC16EF28C03
:10277C00F28EADEC18F04BEC12F0B8EC0AF0756B75
:10278C00010E746F0F0E766F6BEC16F00001726B0E
:10279C00010E716F1EEC16F00001D16FD151020DBC
:1027AC00F3CF64F1620EA86F010EA96FA0EC10F0CC
:1027BC0057EC18F0660E0001686F010E696F010E80
:1027CC006A6F63C16BF0010164511EEC04F0B7EC4D
:1027DC0018F021EC0AF048EF0BF060516111621116
:1027EC000AE16351D96EDA6A000EDE6ADD6A606B4B
:1027FC00616B626B120062517F0B646F656BD890DA
:10280C00643765376351D96EDA6A64C0DEFF65C020
:10281C00DDFF6351D96EDA6A010E61AF000EDE1274
:10282C00000EDD126351D96EDA6A820EDE26FF0EBF
:10283C00DD226251800B3F09626F619F60C060F0C6
:10284C0061C061F062C062F0120020EE87F000EE11
:10285C0060F00E0EDBCFEBFFE806FCE2D0EC18F0DC
:10286C00FF0E8625966F976BFF0E972397BF16D09A
:10287C0020EE87F000EE6FF00E0EDBCFEBFFE806DC
:10288C00FCE296518425D96E97518521DA6EDF5082
:10289C0008EC12F09607D8A09707E8D720EE87F03F
:1028AC0000EE60F00E0EDBCFEBFFE806FCE2D7EF9C
:1028BC0018F020EE28F000EE01F00E0EDBCFEBFF4F
:1028CC00E806FCE2FAEC18F0FF0E2724376E386AA3
:1028DC00FF0E382238BE16D020EE28F000EE10F095
:1028EC000E0EDBCFEBFFE806FCE237502524D96E49
:1028FC0038502620DA6EDF508EEC12F03706D8A056
:10290C003806E8D720EE28F000EE01F00E0EDBCFF3
:10291C00EBFFE806FCE201EF19F0716B8E0E706FA5
:10292C006BAF11D06B1F6A1F691F686D000E692396
:10293C006A236B23010E716F06D0D8906B336A3308
:10294C0069336833702B6C6B6D6B6E6B6B516F6F87
:10295C006C516D116E116F11F0E168C060F069C0BF
:10296C0061F06AC062F070C063F071C064F0C3ECD7
:10297C0011F060C068F061C069F062C06AF01200CA
:10298C0005C0D9FF06C0DAFFDF500C6E0D6A0A5085
:10299C000C26000E0ABEFF0E0D220D50800A0B6E87
:1029AC0007500C5C800E07BE7F0E0B5805E20750DB
:1029BC000C6E0D6A0CBE0D060C50085C0950800A9A
:1029CC000B6E0D50800A0B5804E208C00CF009C0C5
:1029DC000DF005C0D9FF06C0DAFF0CC0DFFF1200F6
:1029EC00270E0001636F100E626F0CD0070E0001F2
:1029FC00606F7D0EE82EFED7602FFCD700016207BA
:102A0C00D8A06307C5501F0B606F616B010EC7A484
:102A1C00000E60136051611106E063BF04D0635176
:102A2C00E5E16205E3E263BF06D0635102E16205B2
:102A3C0002E3010E01D0000E646F6451120062AF0C
:102A4C000DD0666B676B800E686F6051665D606F52
:102A5C0061516759616F62516859626F65AF0DD0F2
:102A6C00666B676B800E686F6351665D636F645154
:102A7C006759646F65516859656F800E621B651BE1
:102A8C006351605D645161596551625902E2D8909D
:102A9C001200D880120020D062C0D9FF63C0DAFFC8
:102AAC0060C0E1FF61C0E2FFDE50E61811E060C0DB
:102ABC00D9FF61C0DAFFDF50666F62C0D9FF63C017
:102ACC00DAFFDF50665D606F616BD8A061071200A2
:102ADC00604B612B624B632B6407D8A0650764299C
:102AEC00DBE16529D9E1606B616B120076C07EF089
:102AFC0074C0D9FF75C0DAFFDF507F6F7E2B02D018
:102B0C00D8907F337E2FFCD700017F51010B806F53
:102B1C0020EE6FF000EE60F00E0EDBCFEBFFE80660
:102B2C00FCE2C8EC18F020EE6FF000EE60F00E0E38
:102B3C00DBCFEBFFE806FCE2F3EC18F0805112005F
:102B4C0017C01FF015C0D9FF16C0DAFFDF50206E7A
:102B5C001F2A02D0D89020321F2EFCD72050010BF8
:102B6C00216E20EE10F000EE01F00E0EDBCFEBFF2D
:102B7C00E806FCE208EC19F020EE10F000EE01F093
:102B8C000E0EDBCFEBFFE806FCE20FEC19F0215048
:102B9C00120020EE04F06051D9266151DA2210EEB9
:102BAC0002F06051E1266151E222E750626F010EA2
:102BBC00636F622B02D0D8906337622FFCD7000171
:102BCC006351DF6E20EE03F06051D9266151DA2299
:102BDC0010EE04F06051E1266151E222E71CDF6E39
:102BEC001200A1C05AF0F40E836FB20E846F3B0E2C
:102BFC00856F9EC080F09FC081F0A0C082F048EC31
:102C0C000FF080C08FF081C090F082C091F0EBEC9F
:102C1C000EF08FC05BF090C05CF0CD98CD98CD8657
:102C2C00CD84CD92CF6ACE6A9D809E90CD801200CD
:102C3C0071C06EF072C06FF0706BC1EC17F00009D0
:102C4C001DE0E5EC18F0000919E071C068F072C0E5
:102C5C0069F0010E6A6FD9EC17F000090FE01CEC5B
:102C6C0018F00001736F000E86EC18F0000906E0F6
:102C7C00ECEC18F0000902E073511200000C8E0EFF
:102C8C00706F06D0D8906B336A3369336833702B0E
:102C9C006C6B6D6B6E6B6B516F6F6C516D116E114C
:102CAC006F11F0E168C060F069C061F06AC062F059
:102CBC0070C063F0000E646FC3EC11F060C068F07C
:102CCC0061C069F062C06AF0120074C06EF075C029
:102CDC006FF0706BC1EC17F000091AE0000176512F
:102CEC00F0EC17F0000914E0010E86EC18F0000966
:102CFC000FE0ECEC18F000090BE074C071F075C03B
:102D0C0072F01EEC16F000017619D8B4010C000C10
:102D1C00000C940E816F21EE8EF000EE82F00E0E00
:102D2C00DBCFEBFFE806FCE2F2EC16F0000E010143
:102D3C0061250001606F616B010E6123940E626F5F
:102D4C00636B656B180E646FB0EC16F0180E010116
:102D5C006127180C62C068F063C069F060C066F04F
:102D6C0061C067F010D068C0D9FF69C0DAFFDF50CE
:102D7C006A6F684B692B66C0D9FF67C0DAFF6AC0FF
:102D8C00DFFF664B672B6407D8A065076429EBE16E
:102D9C006529E9E1120003C009F004C00AF001C082
:102DAC0007F002C008F010D009C0D9FF0AC0DAFF42
:102DBC00DF500B6E094A0A2A07C0D9FF08C0DAFF98
:102DCC000BC0DFFF074A082A0506D8A0060605280F
:102DDC00EBE10628E9E11200926B936B20EE82F096
:102DEC0000EE6FF00E0EDBCFEBFFE806FCE27CECA6
:102DFC0015F0916F81519225D96EDA6A91C0DFFF7F
:102E0C00924B932B93BFEAD7935105E1180E925D29
:102E1C00D8B01200E3D71200336A346A20EE23F0E4
:102E2C0000EE10F00E0EDBCFEBFFE806FCE2A6EC9A
:102E3C0015F0326E22503324D96EDA6A32C0DFFFBD
:102E4C00334A342A34BEEAD7345005E1180E335CC9
:102E5C00D8B01200E3D71200A68462C0A9FF64C0E8
:102E6C00A8FFA69EA69C000EF2BE010E656FF29EF8
:102E7C00550EA76EAA0EA76EA68265B102D0F29E61
:102E8C0001D0F28EA6B2FED7A69462C060F063C0E9
:102E9C0061F0DEEF18F0350E226E21EE8EF000EEB2
:102EAC0023F00E0EDBCFEBFFE806FCE212EC17F082
:102EBC00000E01016125016E026A010E0222350E1F
:102ECC00036E046A066A180E056ED1EC16F0180E25
:102EDC006127180C616F0001636B605114E0010EE7
:102EEC00626F03D0D8906037622B60AFFBD7D8905D
:102EFC0063376051615D03E36051615F6381D8901A
:102F0C006033622FF4D7635112009E519F11A011B0
:102F1C0002E0800EA01B9BC08FF09CC090F09DC067
:102F2C0091F09EC092F09FC093F0A0C094F0D3ECAF
:102F3C0008F08FC09BF090C09CF091C09DF01200E7
:102F4C006B6B69AF06D0686D691FD8B0692B010E29
:102F5C006B6F68C060F069C061F0626B8E0E636F5E
:102F6C006BC064F0C3EC11F060C068F061C069F034
:102F7C0062C06AF01200E5EC18F0000913E06EC0B4
:102F8C0068F06FC069F070C06AF0D9EC17F00009F6
:102F9C0009E000016E51F0EC17F0000903E0010E9E
:102FAC0086EF18F0000C68C06BF069C06CF0070E6F
:102FBC006D6F6C356C336B336D2FFBD76B51060B10
:102FCC006A11A009F0EC17F0000903E0010E86EF7E
:102FDC0018F0000C676FF6EC14F0000910E067C0F5
:102FEC00C9FF030E0001666F8A0E656F550EE82E41
:102FFC00FED7652FFCD7662FFAD700D0010C000C3A
:10300C0064C060F065C061F0CFEC15F0050E64256E
:10301C00606F000E6521616FCFEC15F00A0E642510
:10302C00606F000E6521616FCFEF15F0F6EC14F0B8
:10303C0000090FE0C586F6EC14F000090AE0C9CFD0
:10304C0066F0010E86EC18F0000903E000016651F1
:10305C001200000C656F080E0001666F676BD8904C
:10306C0065356735676FD89065376451675D02E3E6
:10307C006451675F662FF3D7675112006B6F0001C5
:10308C006B51606F616B626B8E0E636F000E646FC1
:10309C00C3EC11F060C068F061C069F062C06AF006
:1030AC0012006E0E606F010E616F620E626F010E88
:1030BC00636F656B0C0E646FB0EC16F00101866BE0
:1030CC001200B6C201F0B7C202F0B8C2B6F2B9C271
:1030DC00B7F201C0B8F202C0B9F2010E016F006B79
:1030EC0012006E0E016E010E026E620E036E010E68
:1030FC00046E066A0C0E056ED1EC16F0866B12008F
:10310C000001656FF6EC14F0000907E065A102D030
:10311C00C58A01D0C59AC588010C000C605161119B
:10312C00621102E0800E621B60C060F061C061F051
:10313C0062C062F012000001DF5102E00201C71F01
:10314C000001E051D8B412000201C91FFF0C800E1F
:10315C0000019E6F1A0E9F6F060EA06FA16B35EFCC
:10316C0011F0D590D582D584D596D59AD58CF28A86
:10317C00D58E1200010E0101866F8651FEE1010E03
:10318C00876F010C60C0D9FF61C0DAFF0001635189
:10319C00DF1612006AC0D9FF6BC0DAFF6D51DF1663
:1031AC0012006AC0D9FF6BC0DAFF6E51DF12120039
:1031BC0060C0A9FFA69EA69CA680A8501200F6ECA3
:1031CC0014F0000902E0C580010C000CF6EC14F0C0
:1031DC00000902E0C584010C000C60C0D9FF61C07D
:1031EC00DAFF6451DF1212000BC0D9FF0CC0DAFFFA
:1031FC000E50DF1612000BC0D9FF0CC0DAFF0F50B7
:10320C00DF12120001C0D9FF02C0DAFF0450DF1632
:10321C00120001C0D9FF02C0DAFF0550DF12120004
:10322C007706B397C6D5F507F7D70101876B885199
:10323C00FEE01200CD905D6A5E6A1200CD905D6A70
:06324C005E6A1200120090
:020000040020DA
:08000000FFFFFFFFFFFFFFFF00
:020000040030CA
:0E000000240E1F1EFF8381FF0FC00FE00F4074
:00000001FF
